{
  "_format": "hh-sol-artifact-1",
  "contractName": "TokenStaking",
  "sourceName": "contracts/TokenStaking.sol",
  "abi": [
    {
      "inputs": [
        {
          "internalType": "address",
          "name": "token",
          "type": "address"
        },
        {
          "internalType": "uint256",
          "name": "_defaultEpochRewards",
          "type": "uint256"
        },
        {
          "internalType": "uint256",
          "name": "_epochDuration",
          "type": "uint256"
        },
        {
          "internalType": "uint256",
          "name": "_epochStartTime",
          "type": "uint256"
        },
        {
          "components": [
            {
              "internalType": "uint256",
              "name": "lockPeriod",
              "type": "uint256"
            },
            {
              "internalType": "uint256",
              "name": "multiplier",
              "type": "uint256"
            }
          ],
          "internalType": "struct TokenStaking.Tier[]",
          "name": "_tiers",
          "type": "tuple[]"
        }
      ],
      "stateMutability": "nonpayable",
      "type": "constructor"
    },
    {
      "inputs": [],
      "name": "AccessControlBadConfirmation",
      "type": "error"
    },
    {
      "inputs": [
        {
          "internalType": "address",
          "name": "account",
          "type": "address"
        },
        {
          "internalType": "bytes32",
          "name": "neededRole",
          "type": "bytes32"
        }
      ],
      "name": "AccessControlUnauthorizedAccount",
      "type": "error"
    },
    {
      "inputs": [],
      "name": "CannotSetRewardForPastEpochs",
      "type": "error"
    },
    {
      "inputs": [],
      "name": "CannotStakeZeroAmount",
      "type": "error"
    },
    {
      "inputs": [
        {
          "internalType": "address",
          "name": "spender",
          "type": "address"
        },
        {
          "internalType": "uint256",
          "name": "allowance",
          "type": "uint256"
        },
        {
          "internalType": "uint256",
          "name": "needed",
          "type": "uint256"
        }
      ],
      "name": "ERC20InsufficientAllowance",
      "type": "error"
    },
    {
      "inputs": [
        {
          "internalType": "address",
          "name": "sender",
          "type": "address"
        },
        {
          "internalType": "uint256",
          "name": "balance",
          "type": "uint256"
        },
        {
          "internalType": "uint256",
          "name": "needed",
          "type": "uint256"
        }
      ],
      "name": "ERC20InsufficientBalance",
      "type": "error"
    },
    {
      "inputs": [
        {
          "internalType": "address",
          "name": "approver",
          "type": "address"
        }
      ],
      "name": "ERC20InvalidApprover",
      "type": "error"
    },
    {
      "inputs": [
        {
          "internalType": "address",
          "name": "receiver",
          "type": "address"
        }
      ],
      "name": "ERC20InvalidReceiver",
      "type": "error"
    },
    {
      "inputs": [
        {
          "internalType": "address",
          "name": "sender",
          "type": "address"
        }
      ],
      "name": "ERC20InvalidSender",
      "type": "error"
    },
    {
      "inputs": [
        {
          "internalType": "address",
          "name": "spender",
          "type": "address"
        }
      ],
      "name": "ERC20InvalidSpender",
      "type": "error"
    },
    {
      "inputs": [],
      "name": "EnforcedPause",
      "type": "error"
    },
    {
      "inputs": [],
      "name": "EpochDurationMustBeGreaterThanZero",
      "type": "error"
    },
    {
      "inputs": [],
      "name": "ExpectedPause",
      "type": "error"
    },
    {
      "inputs": [],
      "name": "InvalidEpoch",
      "type": "error"
    },
    {
      "inputs": [],
      "name": "InvalidStakeIndex",
      "type": "error"
    },
    {
      "inputs": [],
      "name": "InvalidTierIndex",
      "type": "error"
    },
    {
      "inputs": [],
      "name": "LockPeriodNotEnded",
      "type": "error"
    },
    {
      "inputs": [],
      "name": "MultiplierMustBeGreaterThanZero",
      "type": "error"
    },
    {
      "inputs": [],
      "name": "NotEnoughBalance",
      "type": "error"
    },
    {
      "inputs": [],
      "name": "ReentrancyGuardReentrantCall",
      "type": "error"
    },
    {
      "inputs": [],
      "name": "RewardTransferFailed",
      "type": "error"
    },
    {
      "inputs": [
        {
          "internalType": "address",
          "name": "token",
          "type": "address"
        }
      ],
      "name": "SafeERC20FailedOperation",
      "type": "error"
    },
    {
      "inputs": [],
      "name": "StakeTransferFailed",
      "type": "error"
    },
    {
      "inputs": [],
      "name": "TransferNotAllowed",
      "type": "error"
    },
    {
      "inputs": [],
      "name": "UnclaimedRewardsRemain",
      "type": "error"
    },
    {
      "inputs": [],
      "name": "UnstakeTransferFailed",
      "type": "error"
    },
    {
      "anonymous": false,
      "inputs": [
        {
          "indexed": true,
          "internalType": "address",
          "name": "owner",
          "type": "address"
        },
        {
          "indexed": true,
          "internalType": "address",
          "name": "spender",
          "type": "address"
        },
        {
          "indexed": false,
          "internalType": "uint256",
          "name": "value",
          "type": "uint256"
        }
      ],
      "name": "Approval",
      "type": "event"
    },
    {
      "anonymous": false,
      "inputs": [
        {
          "indexed": false,
          "internalType": "uint256",
          "name": "defaultEpochRewards",
          "type": "uint256"
        }
      ],
      "name": "DefaultEpochRewardsSet",
      "type": "event"
    },
    {
      "anonymous": false,
      "inputs": [
        {
          "indexed": true,
          "internalType": "uint256",
          "name": "epoch",
          "type": "uint256"
        },
        {
          "indexed": false,
          "internalType": "bytes32",
          "name": "merkleRoot",
          "type": "bytes32"
        }
      ],
      "name": "MerkleRootSet",
      "type": "event"
    },
    {
      "anonymous": false,
      "inputs": [
        {
          "indexed": false,
          "internalType": "address",
          "name": "account",
          "type": "address"
        }
      ],
      "name": "Paused",
      "type": "event"
    },
    {
      "anonymous": false,
      "inputs": [
        {
          "indexed": true,
          "internalType": "address",
          "name": "user",
          "type": "address"
        },
        {
          "indexed": false,
          "internalType": "uint256",
          "name": "amount",
          "type": "uint256"
        }
      ],
      "name": "RewardClaimed",
      "type": "event"
    },
    {
      "anonymous": false,
      "inputs": [
        {
          "indexed": true,
          "internalType": "uint256",
          "name": "epoch",
          "type": "uint256"
        },
        {
          "indexed": false,
          "internalType": "uint256",
          "name": "amount",
          "type": "uint256"
        }
      ],
      "name": "RewardSet",
      "type": "event"
    },
    {
      "anonymous": false,
      "inputs": [
        {
          "indexed": true,
          "internalType": "bytes32",
          "name": "role",
          "type": "bytes32"
        },
        {
          "indexed": true,
          "internalType": "bytes32",
          "name": "previousAdminRole",
          "type": "bytes32"
        },
        {
          "indexed": true,
          "internalType": "bytes32",
          "name": "newAdminRole",
          "type": "bytes32"
        }
      ],
      "name": "RoleAdminChanged",
      "type": "event"
    },
    {
      "anonymous": false,
      "inputs": [
        {
          "indexed": true,
          "internalType": "bytes32",
          "name": "role",
          "type": "bytes32"
        },
        {
          "indexed": true,
          "internalType": "address",
          "name": "account",
          "type": "address"
        },
        {
          "indexed": true,
          "internalType": "address",
          "name": "sender",
          "type": "address"
        }
      ],
      "name": "RoleGranted",
      "type": "event"
    },
    {
      "anonymous": false,
      "inputs": [
        {
          "indexed": true,
          "internalType": "bytes32",
          "name": "role",
          "type": "bytes32"
        },
        {
          "indexed": true,
          "internalType": "address",
          "name": "account",
          "type": "address"
        },
        {
          "indexed": true,
          "internalType": "address",
          "name": "sender",
          "type": "address"
        }
      ],
      "name": "RoleRevoked",
      "type": "event"
    },
    {
      "anonymous": false,
      "inputs": [
        {
          "indexed": true,
          "internalType": "address",
          "name": "user",
          "type": "address"
        },
        {
          "indexed": false,
          "internalType": "uint256",
          "name": "amount",
          "type": "uint256"
        },
        {
          "indexed": true,
          "internalType": "uint256",
          "name": "tierIndex",
          "type": "uint256"
        }
      ],
      "name": "Staked",
      "type": "event"
    },
    {
      "anonymous": false,
      "inputs": [
        {
          "indexed": false,
          "internalType": "uint256",
          "name": "lockPeriod",
          "type": "uint256"
        },
        {
          "indexed": false,
          "internalType": "uint256",
          "name": "multiplier",
          "type": "uint256"
        }
      ],
      "name": "TierAdded",
      "type": "event"
    },
    {
      "anonymous": false,
      "inputs": [
        {
          "indexed": true,
          "internalType": "address",
          "name": "from",
          "type": "address"
        },
        {
          "indexed": true,
          "internalType": "address",
          "name": "to",
          "type": "address"
        },
        {
          "indexed": false,
          "internalType": "uint256",
          "name": "value",
          "type": "uint256"
        }
      ],
      "name": "Transfer",
      "type": "event"
    },
    {
      "anonymous": false,
      "inputs": [
        {
          "indexed": false,
          "internalType": "address",
          "name": "account",
          "type": "address"
        }
      ],
      "name": "Unpaused",
      "type": "event"
    },
    {
      "anonymous": false,
      "inputs": [
        {
          "indexed": true,
          "internalType": "address",
          "name": "user",
          "type": "address"
        },
        {
          "indexed": false,
          "internalType": "uint256",
          "name": "amount",
          "type": "uint256"
        }
      ],
      "name": "Unstaked",
      "type": "event"
    },
    {
      "inputs": [],
      "name": "DEFAULT_ADMIN_ROLE",
      "outputs": [
        {
          "internalType": "bytes32",
          "name": "",
          "type": "bytes32"
        }
      ],
      "stateMutability": "view",
      "type": "function"
    },
    {
      "inputs": [],
      "name": "EPOCH_MANAGER_ROLE",
      "outputs": [
        {
          "internalType": "bytes32",
          "name": "",
          "type": "bytes32"
        }
      ],
      "stateMutability": "view",
      "type": "function"
    },
    {
      "inputs": [],
      "name": "TOKEN",
      "outputs": [
        {
          "internalType": "contract IERC20",
          "name": "",
          "type": "address"
        }
      ],
      "stateMutability": "view",
      "type": "function"
    },
    {
      "inputs": [
        {
          "internalType": "address",
          "name": "owner",
          "type": "address"
        },
        {
          "internalType": "address",
          "name": "spender",
          "type": "address"
        }
      ],
      "name": "allowance",
      "outputs": [
        {
          "internalType": "uint256",
          "name": "",
          "type": "uint256"
        }
      ],
      "stateMutability": "view",
      "type": "function"
    },
    {
      "inputs": [
        {
          "internalType": "address",
          "name": "spender",
          "type": "address"
        },
        {
          "internalType": "uint256",
          "name": "value",
          "type": "uint256"
        }
      ],
      "name": "approve",
      "outputs": [
        {
          "internalType": "bool",
          "name": "",
          "type": "bool"
        }
      ],
      "stateMutability": "nonpayable",
      "type": "function"
    },
    {
      "inputs": [
        {
          "internalType": "address",
          "name": "account",
          "type": "address"
        }
      ],
      "name": "balanceOf",
      "outputs": [
        {
          "internalType": "uint256",
          "name": "",
          "type": "uint256"
        }
      ],
      "stateMutability": "view",
      "type": "function"
    },
    {
      "inputs": [
        {
          "internalType": "uint256",
          "name": "stakeIndex",
          "type": "uint256"
        },
        {
          "internalType": "uint32[]",
          "name": "epochs",
          "type": "uint32[]"
        },
        {
          "internalType": "bytes32[][]",
          "name": "merkleProofs",
          "type": "bytes32[][]"
        }
      ],
      "name": "calculateRewards",
      "outputs": [
        {
          "internalType": "uint256",
          "name": "",
          "type": "uint256"
        }
      ],
      "stateMutability": "view",
      "type": "function"
    },
    {
      "inputs": [
        {
          "internalType": "uint256",
          "name": "stakeIndex",
          "type": "uint256"
        },
        {
          "internalType": "uint256[]",
          "name": "votedEpochs",
          "type": "uint256[]"
        }
      ],
      "name": "calculateRewardsWithVoting",
      "outputs": [
        {
          "internalType": "uint256",
          "name": "",
          "type": "uint256"
        }
      ],
      "stateMutability": "view",
      "type": "function"
    },
    {
      "inputs": [
        {
          "internalType": "uint256",
          "name": "stakeIndex",
          "type": "uint256"
        },
        {
          "internalType": "uint32[]",
          "name": "epochs",
          "type": "uint32[]"
        },
        {
          "internalType": "bytes32[][]",
          "name": "merkleProofs",
          "type": "bytes32[][]"
        },
        {
          "internalType": "bool",
          "name": "unstakeAfterClaim",
          "type": "bool"
        }
      ],
      "name": "claimRewards",
      "outputs": [],
      "stateMutability": "nonpayable",
      "type": "function"
    },
    {
      "inputs": [],
      "name": "decimals",
      "outputs": [
        {
          "internalType": "uint8",
          "name": "",
          "type": "uint8"
        }
      ],
      "stateMutability": "view",
      "type": "function"
    },
    {
      "inputs": [],
      "name": "defaultEpochRewards",
      "outputs": [
        {
          "internalType": "uint256",
          "name": "",
          "type": "uint256"
        }
      ],
      "stateMutability": "view",
      "type": "function"
    },
    {
      "inputs": [],
      "name": "epochDuration",
      "outputs": [
        {
          "internalType": "uint256",
          "name": "",
          "type": "uint256"
        }
      ],
      "stateMutability": "view",
      "type": "function"
    },
    {
      "inputs": [
        {
          "internalType": "uint256",
          "name": "epoch",
          "type": "uint256"
        }
      ],
      "name": "epochMerkleRoots",
      "outputs": [
        {
          "internalType": "bytes32",
          "name": "root",
          "type": "bytes32"
        }
      ],
      "stateMutability": "view",
      "type": "function"
    },
    {
      "inputs": [],
      "name": "epochStartTime",
      "outputs": [
        {
          "internalType": "uint256",
          "name": "",
          "type": "uint256"
        }
      ],
      "stateMutability": "view",
      "type": "function"
    },
    {
      "inputs": [],
      "name": "getCurrentEpoch",
      "outputs": [
        {
          "internalType": "uint256",
          "name": "",
          "type": "uint256"
        }
      ],
      "stateMutability": "view",
      "type": "function"
    },
    {
      "inputs": [
        {
          "internalType": "uint256",
          "name": "epoch",
          "type": "uint256"
        }
      ],
      "name": "getRewardsForEpoch",
      "outputs": [
        {
          "internalType": "uint256",
          "name": "",
          "type": "uint256"
        }
      ],
      "stateMutability": "view",
      "type": "function"
    },
    {
      "inputs": [
        {
          "internalType": "bytes32",
          "name": "role",
          "type": "bytes32"
        }
      ],
      "name": "getRoleAdmin",
      "outputs": [
        {
          "internalType": "bytes32",
          "name": "",
          "type": "bytes32"
        }
      ],
      "stateMutability": "view",
      "type": "function"
    },
    {
      "inputs": [],
      "name": "getTiers",
      "outputs": [
        {
          "components": [
            {
              "internalType": "uint256",
              "name": "lockPeriod",
              "type": "uint256"
            },
            {
              "internalType": "uint256",
              "name": "multiplier",
              "type": "uint256"
            }
          ],
          "internalType": "struct TokenStaking.Tier[]",
          "name": "",
          "type": "tuple[]"
        }
      ],
      "stateMutability": "view",
      "type": "function"
    },
    {
      "inputs": [
        {
          "internalType": "uint256",
          "name": "epoch",
          "type": "uint256"
        }
      ],
      "name": "getTotalEffectiveSupplyAtEpoch",
      "outputs": [
        {
          "internalType": "uint256",
          "name": "",
          "type": "uint256"
        }
      ],
      "stateMutability": "view",
      "type": "function"
    },
    {
      "inputs": [
        {
          "internalType": "address",
          "name": "user",
          "type": "address"
        }
      ],
      "name": "getUserStakes",
      "outputs": [
        {
          "components": [
            {
              "internalType": "uint256",
              "name": "amount",
              "type": "uint256"
            },
            {
              "internalType": "uint256",
              "name": "effectiveAmount",
              "type": "uint256"
            },
            {
              "internalType": "uint32",
              "name": "tierIndex",
              "type": "uint32"
            },
            {
              "internalType": "uint32",
              "name": "startTime",
              "type": "uint32"
            },
            {
              "internalType": "uint32",
              "name": "lastClaimEpoch",
              "type": "uint32"
            }
          ],
          "internalType": "struct TokenStaking.Stake[]",
          "name": "",
          "type": "tuple[]"
        }
      ],
      "stateMutability": "view",
      "type": "function"
    },
    {
      "inputs": [
        {
          "internalType": "bytes32",
          "name": "role",
          "type": "bytes32"
        },
        {
          "internalType": "address",
          "name": "account",
          "type": "address"
        }
      ],
      "name": "grantRole",
      "outputs": [],
      "stateMutability": "nonpayable",
      "type": "function"
    },
    {
      "inputs": [
        {
          "internalType": "bytes32",
          "name": "role",
          "type": "bytes32"
        },
        {
          "internalType": "address",
          "name": "account",
          "type": "address"
        }
      ],
      "name": "hasRole",
      "outputs": [
        {
          "internalType": "bool",
          "name": "",
          "type": "bool"
        }
      ],
      "stateMutability": "view",
      "type": "function"
    },
    {
      "inputs": [
        {
          "internalType": "uint256",
          "name": "epoch",
          "type": "uint256"
        },
        {
          "internalType": "address",
          "name": "user",
          "type": "address"
        },
        {
          "internalType": "bytes32[]",
          "name": "merkleProof",
          "type": "bytes32[]"
        }
      ],
      "name": "hasVoted",
      "outputs": [
        {
          "internalType": "bool",
          "name": "",
          "type": "bool"
        }
      ],
      "stateMutability": "view",
      "type": "function"
    },
    {
      "inputs": [
        {
          "internalType": "uint256",
          "name": "stakeIndex",
          "type": "uint256"
        }
      ],
      "name": "isLocked",
      "outputs": [
        {
          "internalType": "bool",
          "name": "",
          "type": "bool"
        }
      ],
      "stateMutability": "view",
      "type": "function"
    },
    {
      "inputs": [],
      "name": "lastTotalEffectiveSupplyChangedAtEpoch",
      "outputs": [
        {
          "internalType": "uint256",
          "name": "",
          "type": "uint256"
        }
      ],
      "stateMutability": "view",
      "type": "function"
    },
    {
      "inputs": [],
      "name": "name",
      "outputs": [
        {
          "internalType": "string",
          "name": "",
          "type": "string"
        }
      ],
      "stateMutability": "view",
      "type": "function"
    },
    {
      "inputs": [],
      "name": "pause",
      "outputs": [],
      "stateMutability": "nonpayable",
      "type": "function"
    },
    {
      "inputs": [],
      "name": "paused",
      "outputs": [
        {
          "internalType": "bool",
          "name": "",
          "type": "bool"
        }
      ],
      "stateMutability": "view",
      "type": "function"
    },
    {
      "inputs": [
        {
          "internalType": "bytes32",
          "name": "role",
          "type": "bytes32"
        },
        {
          "internalType": "address",
          "name": "callerConfirmation",
          "type": "address"
        }
      ],
      "name": "renounceRole",
      "outputs": [],
      "stateMutability": "nonpayable",
      "type": "function"
    },
    {
      "inputs": [
        {
          "internalType": "bytes32",
          "name": "role",
          "type": "bytes32"
        },
        {
          "internalType": "address",
          "name": "account",
          "type": "address"
        }
      ],
      "name": "revokeRole",
      "outputs": [],
      "stateMutability": "nonpayable",
      "type": "function"
    },
    {
      "inputs": [
        {
          "internalType": "uint256",
          "name": "epoch",
          "type": "uint256"
        }
      ],
      "name": "rewardsPerEpoch",
      "outputs": [
        {
          "internalType": "uint256",
          "name": "reward",
          "type": "uint256"
        }
      ],
      "stateMutability": "view",
      "type": "function"
    },
    {
      "inputs": [
        {
          "internalType": "uint256",
          "name": "_defaultEpochRewards",
          "type": "uint256"
        }
      ],
      "name": "setDefaultEpochRewards",
      "outputs": [],
      "stateMutability": "nonpayable",
      "type": "function"
    },
    {
      "inputs": [
        {
          "internalType": "uint256",
          "name": "epoch",
          "type": "uint256"
        },
        {
          "internalType": "bytes32",
          "name": "merkleRoot",
          "type": "bytes32"
        }
      ],
      "name": "setMerkleRoot",
      "outputs": [],
      "stateMutability": "nonpayable",
      "type": "function"
    },
    {
      "inputs": [
        {
          "internalType": "uint256",
          "name": "epoch",
          "type": "uint256"
        },
        {
          "internalType": "uint256",
          "name": "reward",
          "type": "uint256"
        }
      ],
      "name": "setRewardForEpoch",
      "outputs": [],
      "stateMutability": "nonpayable",
      "type": "function"
    },
    {
      "inputs": [
        {
          "internalType": "uint256",
          "name": "index",
          "type": "uint256"
        },
        {
          "internalType": "uint256",
          "name": "lockPeriod",
          "type": "uint256"
        },
        {
          "internalType": "uint256",
          "name": "multiplier",
          "type": "uint256"
        }
      ],
      "name": "setTier",
      "outputs": [],
      "stateMutability": "nonpayable",
      "type": "function"
    },
    {
      "inputs": [
        {
          "internalType": "uint256",
          "name": "amount",
          "type": "uint256"
        },
        {
          "internalType": "uint32",
          "name": "tierIndex",
          "type": "uint32"
        }
      ],
      "name": "stake",
      "outputs": [],
      "stateMutability": "nonpayable",
      "type": "function"
    },
    {
      "inputs": [
        {
          "internalType": "bytes4",
          "name": "interfaceId",
          "type": "bytes4"
        }
      ],
      "name": "supportsInterface",
      "outputs": [
        {
          "internalType": "bool",
          "name": "",
          "type": "bool"
        }
      ],
      "stateMutability": "view",
      "type": "function"
    },
    {
      "inputs": [],
      "name": "symbol",
      "outputs": [
        {
          "internalType": "string",
          "name": "",
          "type": "string"
        }
      ],
      "stateMutability": "view",
      "type": "function"
    },
    {
      "inputs": [
        {
          "internalType": "uint256",
          "name": "",
          "type": "uint256"
        }
      ],
      "name": "tiers",
      "outputs": [
        {
          "internalType": "uint256",
          "name": "lockPeriod",
          "type": "uint256"
        },
        {
          "internalType": "uint256",
          "name": "multiplier",
          "type": "uint256"
        }
      ],
      "stateMutability": "view",
      "type": "function"
    },
    {
      "inputs": [],
      "name": "totalEffectiveSupply",
      "outputs": [
        {
          "internalType": "uint256",
          "name": "",
          "type": "uint256"
        }
      ],
      "stateMutability": "view",
      "type": "function"
    },
    {
      "inputs": [
        {
          "internalType": "uint256",
          "name": "epoch",
          "type": "uint256"
        }
      ],
      "name": "totalEffectiveSupplyAtEpoch",
      "outputs": [
        {
          "internalType": "uint256",
          "name": "totalEffectiveSupply",
          "type": "uint256"
        }
      ],
      "stateMutability": "view",
      "type": "function"
    },
    {
      "inputs": [],
      "name": "totalSupply",
      "outputs": [
        {
          "internalType": "uint256",
          "name": "",
          "type": "uint256"
        }
      ],
      "stateMutability": "view",
      "type": "function"
    },
    {
      "inputs": [
        {
          "internalType": "address",
          "name": "to",
          "type": "address"
        },
        {
          "internalType": "uint256",
          "name": "value",
          "type": "uint256"
        }
      ],
      "name": "transfer",
      "outputs": [
        {
          "internalType": "bool",
          "name": "",
          "type": "bool"
        }
      ],
      "stateMutability": "nonpayable",
      "type": "function"
    },
    {
      "inputs": [
        {
          "internalType": "address",
          "name": "from",
          "type": "address"
        },
        {
          "internalType": "address",
          "name": "to",
          "type": "address"
        },
        {
          "internalType": "uint256",
          "name": "value",
          "type": "uint256"
        }
      ],
      "name": "transferFrom",
      "outputs": [
        {
          "internalType": "bool",
          "name": "",
          "type": "bool"
        }
      ],
      "stateMutability": "nonpayable",
      "type": "function"
    },
    {
      "inputs": [],
      "name": "unpause",
      "outputs": [],
      "stateMutability": "nonpayable",
      "type": "function"
    },
    {
      "inputs": [
        {
          "internalType": "uint256",
          "name": "stakeIndex",
          "type": "uint256"
        }
      ],
      "name": "unstake",
      "outputs": [],
      "stateMutability": "nonpayable",
      "type": "function"
    },
    {
      "inputs": [
        {
          "internalType": "address",
          "name": "user",
          "type": "address"
        },
        {
          "internalType": "uint256",
          "name": "",
          "type": "uint256"
        }
      ],
      "name": "userStakes",
      "outputs": [
        {
          "internalType": "uint256",
          "name": "amount",
          "type": "uint256"
        },
        {
          "internalType": "uint256",
          "name": "effectiveAmount",
          "type": "uint256"
        },
        {
          "internalType": "uint32",
          "name": "tierIndex",
          "type": "uint32"
        },
        {
          "internalType": "uint32",
          "name": "startTime",
          "type": "uint32"
        },
        {
          "internalType": "uint32",
          "name": "lastClaimEpoch",
          "type": "uint32"
        }
      ],
      "stateMutability": "view",
      "type": "function"
    },
    {
      "inputs": [
        {
          "internalType": "uint256",
          "name": "amount",
          "type": "uint256"
        }
      ],
      "name": "withdraw",
      "outputs": [],
      "stateMutability": "nonpayable",
      "type": "function"
    }
  ],
  "bytecode": "0x60a06040523480156200001157600080fd5b5060405162002ed138038062002ed18339810160408190526200003491620002d3565b336040518060400160405280600b81526020016a14dd185ad959081491505360aa1b815250604051806040016040528060058152602001641cd491505360da1b81525081600390816200008891906200047f565b5060046200009782826200047f565b5050600160055550620000ac60008262000179565b50506008805460ff191690556001600160a01b038516608052620000f17fd1f93295386678925e314b1bb3a85f78a9c16dbca2ec12fec819c401273ca3843362000179565b5060005b81518110156200014d57600c8282815181106200011657620001166200054b565b60209081029190910181015182546001818101855560009485529383902082516002909202019081559101519082015501620000f5565b506009839055600a829055600b8490556000620001696200022c565b60105550620005c6945050505050565b60008281526006602090815260408083206001600160a01b038516845290915281205460ff16620002225760008381526006602090815260408083206001600160a01b03861684529091529020805460ff19166001179055620001d93390565b6001600160a01b0316826001600160a01b0316847f2f8788117e7eff1d82e926ec794901d17c78024a50270940304540a733656f0d60405160405180910390a450600162000226565b5060005b92915050565b6000600954600a544262000241919062000577565b6200024d91906200058d565b6200025a906001620005b0565b905090565b634e487b7160e01b600052604160045260246000fd5b604080519081016001600160401b03811182821017156200029a576200029a6200025f565b60405290565b604051601f8201601f191681016001600160401b0381118282101715620002cb57620002cb6200025f565b604052919050565b600080600080600060a08688031215620002ec57600080fd5b85516001600160a01b03811681146200030457600080fd5b6020878101516040808a015160608b015160808c0151959a50929850965090945090916001600160401b03808211156200033d57600080fd5b818a0191508a601f8301126200035257600080fd5b8151818111156200036757620003676200025f565b62000377858260051b01620002a0565b818152858101925060069190911b83018501908c8211156200039857600080fd5b928501925b81841015620003dd5784848e031215620003b75760008081fd5b620003c162000275565b845181528685015187820152835292840192918501916200039d565b8096505050505050509295509295909350565b600181811c908216806200040557607f821691505b6020821081036200042657634e487b7160e01b600052602260045260246000fd5b50919050565b601f8211156200047a57600081815260208120601f850160051c81016020861015620004555750805b601f850160051c820191505b81811015620004765782815560010162000461565b5050505b505050565b81516001600160401b038111156200049b576200049b6200025f565b620004b381620004ac8454620003f0565b846200042c565b602080601f831160018114620004eb5760008415620004d25750858301515b600019600386901b1c1916600185901b17855562000476565b600085815260208120601f198616915b828110156200051c57888601518255948401946001909101908401620004fb565b50858210156200053b5787850151600019600388901b60f8161c191681555b5050505050600190811b01905550565b634e487b7160e01b600052603260045260246000fd5b634e487b7160e01b600052601160045260246000fd5b8181038181111562000226576200022662000561565b600082620005ab57634e487b7160e01b600052601260045260246000fd5b500490565b8082018082111562000226576200022662000561565b6080516128cc62000605600039600081816104c701528181610aa101528181610b4401528181610ef3015281816119cc0152611de501526128cc6000f3fe608060405234801561001057600080fd5b50600436106102a05760003560e01c806378a96cc011610167578063a9059cbb116100ce578063d547741f11610087578063d547741f14610642578063dd62ed3e14610655578063de1705701461068e578063f60ca641146106a3578063f6aacfb1146106ac578063fc2e05c5146106bf57600080fd5b8063a9059cbb146105a5578063ab08a8a7146105b8578063ad7ea0a9146105cb578063b179f7d9146105d4578063b5d5b5fa146105f4578063b97dd9e21461063a57600080fd5b806391d148541161012057806391d148541461053c57806394cee7b31461054f57806395d89b411461056f5780639cd89c8814610577578063a217fddf1461058a578063a8a7747c1461059257600080fd5b806378a96cc01461049c5780637dc2b0ab146104af57806382bfefc8146104c2578063836a018714610501578063842e2981146105145780638456cb591461053457600080fd5b80632e17de781161020b5780633f4ba83a116101c45780633f4ba83a146104315780634d03d394146104395780634ff0876a1461044c5780635c975abb146104555780636585e4f21461046057806370a082311461047357600080fd5b80632e17de78146103c35780632e1a7d4d146103d65780632f2ff15d146103e9578063313ce567146103fc57806336568abe1461040b578063368400941461041e57600080fd5b806318160ddd1161025d57806318160ddd1461034757806318712c211461034f57806323b872dd14610364578063248a9ca3146103775780632a52344c1461039a5780632c816a5c146103ba57600080fd5b806301ffc9a7146102a5578063039af9eb146102cd578063055c2b95146102f557806306fdde0314610316578063095ea7b31461032b57806314372a101461033e575b600080fd5b6102b86102b336600461223f565b6106e6565b60405190151581526020015b60405180910390f35b6102e06102db366004612269565b61071d565b604080519283526020830191909152016102c4565b6103086103033660046122ce565b61074b565b6040519081526020016102c4565b61031e61090e565b6040516102c49190612348565b6102b86103393660046123b2565b6109a0565b610308600b5481565b600254610308565b61036261035d3660046123dc565b6109b8565b005b6102b86103723660046123fe565b610a34565b610308610385366004612269565b60009081526006602052604090206001015490565b6103086103a8366004612269565b60116020526000908152604090205481565b61030860105481565b6103626103d1366004612269565b610a58565b6103626103e4366004612269565b610a7e565b6103626103f736600461243a565b610b70565b604051601281526020016102c4565b61036261041936600461243a565b610b9b565b61030861042c366004612269565b610bce565b610362610c22565b610308610447366004612269565b610c35565b61030860095481565b60085460ff166102b8565b6102b861046e366004612466565b610c8a565b6103086104813660046124c0565b6001600160a01b031660009081526020819052604090205490565b6103626104aa3660046124ef565b610d2d565b6103626104bd366004612269565b610f78565b6104e97f000000000000000000000000000000000000000000000000000000000000000081565b6040516001600160a01b0390911681526020016102c4565b61036261050f366004612512565b610fbf565b6105276105223660046124c0565b6110a9565b6040516102c4919061253e565b61036261115d565b6102b861054a36600461243a565b611170565b61030861055d366004612269565b600e6020526000908152604090205481565b61031e61119b565b6103626105853660046123dc565b6111aa565b610308600081565b6103086105a03660046125b7565b611241565b6102b86105b33660046123b2565b6113d5565b6103626105c6366004612603565b6113e3565b610308600f5481565b6103086105e2366004612269565b60076020526000908152604090205481565b6106076106023660046123b2565b611421565b60408051958652602086019490945263ffffffff928316938501939093528116606084015216608082015260a0016102c4565b61030861147f565b61036261065036600461243a565b6114ac565b610308610663366004612694565b6001600160a01b03918216600090815260016020908152604080832093909416825291909152205490565b6106966114d1565b6040516102c491906126be565b610308600a5481565b6102b86106ba366004612269565b611544565b6103087fd1f93295386678925e314b1bb3a85f78a9c16dbca2ec12fec819c401273ca38481565b60006001600160e01b03198216637965db0b60e01b148061071757506301ffc9a760e01b6001600160e01b03198316145b92915050565b600c818154811061072d57600080fd5b60009182526020909120600290910201805460019091015490915082565b336000908152600d6020526040812054861061077a5760405163cf468e4360e01b815260040160405180910390fd5b336000908152600d6020526040812080548890811061079b5761079b612700565b600091825260208083206040805160a08101825260039094029091018054845260018101549284019290925260029091015463ffffffff80821692840192909252600160201b810482166060840152600160401b900416608082015291508061080261147f565b608084015190915063ffffffff1660005b888110156108ff5760008a8a8381811061082f5761082f612700565b90506020020160208101906108449190612716565b63ffffffff169050828111158061085b5750838110155b156108795760405163d5b25b6360e01b815260040160405180910390fd5b6108a281338b8b8681811061089057610890612700565b905060200281019061046e9190612731565b156108eb5760006108b282610c35565b905060006108bf83610bce565b9050808860200151836108d29190612791565b6108dc91906127a8565b6108e690886127ca565b965050505b9150806108f7816127dd565b915050610813565b50919998505050505050505050565b60606003805461091d906127f6565b80601f0160208091040260200160405190810160405280929190818152602001828054610949906127f6565b80156109965780601f1061096b57610100808354040283529160200191610996565b820191906000526020600020905b81548152906001019060200180831161097957829003601f168201915b5050505050905090565b6000336109ae818585611639565b5060019392505050565b7fd1f93295386678925e314b1bb3a85f78a9c16dbca2ec12fec819c401273ca3846109e281611646565b600083815260076020526040908190208390555183907fb04b7d6145a7588fdcf339a22877d5965f861c171204fc37688058c5f6c06d3b90610a279085815260200190565b60405180910390a2505050565b600033610a42858285611650565b610a4d8585856116ce565b506001949350505050565b610a6061172d565b610a68611757565b610a718161177d565b610a7b6001600555565b50565b6000610a8981611646565b6040516370a0823160e01b81523060048201526000907f00000000000000000000000000000000000000000000000000000000000000006001600160a01b0316906370a0823190602401602060405180830381865afa158015610af0573d6000803e3d6000fd5b505050506040513d601f19601f82011682018060405250810190610b149190612830565b905082811015610b375760405163569d45cf60e11b815260040160405180910390fd5b610b6b6001600160a01b037f0000000000000000000000000000000000000000000000000000000000000000163385611a38565b505050565b600082815260066020526040902060010154610b8b81611646565b610b958383611a97565b50505050565b6001600160a01b0381163314610bc45760405163334bd91960e11b815260040160405180910390fd5b610b6b8282611b2b565b60008181526011602052604081205415610bf5575060009081526011602052604090205490565b60105482118015610c0d5750610c0961147f565b8211155b15610c1a575050600f5490565b506000919050565b6000610c2d81611646565b610a7b611b98565b6000818152600e602052604081205480158015610c525750600083115b15610c7857600e6000610c66600186612849565b81526020019081526020016000205490505b806000036107175750600b5492915050565b604080516001600160a01b038516602082015260009182910160408051601f1981840301815282825280516020918201209083015201604051602081830303815290604052805190602001209050610d2384848080602002602001604051908101604052809392919081815260200183836020028082843760009201829052508b8152600760205260409020549250859150611bea9050565b9695505050505050565b610d3561172d565b610d3d611757565b81600003610d5e57604051631e254a4360e11b815260040160405180910390fd5b600c5463ffffffff821610610d865760405163255b382160e01b815260040160405180910390fd5b6000610d9061147f565b90506000670de0b6b3a7640000600c8463ffffffff1681548110610db657610db6612700565b90600052602060002090600202016001015485610dd39190612791565b610ddd91906127a8565b9050600081600f54610def91906127ca565b600f8190559050610dff81611c00565b600d6000336001600160a01b03166001600160a01b031681526020019081526020016000206040518060a001604052808781526020018481526020018663ffffffff1681526020014263ffffffff168152602001600186610e609190612849565b63ffffffff90811690915282546001818101855560009485526020948590208451600390930201918255938301519381019390935560408201516002909301805460608401516080909401518316600160401b0263ffffffff60401b19948416600160201b0267ffffffffffffffff19909216958416959095171792909216929092179055610f20906001600160a01b037f00000000000000000000000000000000000000000000000000000000000000001690339030908990611c5d16565b610f2a3386611c96565b60405185815263ffffffff85169033907f1449c6dd7851abc30abf37f57715f492010519147cc2652fbc38202c18a6ee909060200160405180910390a3505050610f746001600555565b5050565b6000610f8381611646565b600b8290556040518281527fec0425bd06d72a2ba50e181c023289475aeaf9ae321827d2f31c0cd60a8557219060200160405180910390a15050565b6000610fca81611646565b81600003610feb57604051632ca7e70960e11b815260040160405180910390fd5b600c548410610b95576040805180820182528481526020808201858152600c805460018101825560009190915292517fdf6966c971051c3d54ec59162606531493a51404a002842f56009d7e5cf4a8c7600290940293840155517fdf6966c971051c3d54ec59162606531493a51404a002842f56009d7e5cf4a8c89092019190915581518581529081018490527fcfc4d8961c232632c6b09bddf66bc413cb73448057d761d8e9131102f8fb3f99910160405180910390a150505050565b6001600160a01b0381166000908152600d60209081526040808320805482518185028101850190935280835260609492939192909184015b828210156111525760008481526020908190206040805160a08101825260038602909201805483526001808201548486015260029091015463ffffffff80821693850193909352600160201b810483166060850152600160401b9004909116608083015290835290920191016110e1565b505050509050919050565b600061116881611646565b610a7b611ccc565b60009182526006602090815260408084206001600160a01b0393909316845291905290205460ff1690565b60606004805461091d906127f6565b7fd1f93295386678925e314b1bb3a85f78a9c16dbca2ec12fec819c401273ca3846111d481611646565b6111dc61147f565b8310156111fc5760405163b30fe86560e01b815260040160405180910390fd5b6000838152600e6020526040908190208390555183907fb1364803920b7aa08b58c240c989062d8ebd96ab4bd352792350afbab26c823990610a279085815260200190565b336000908152600d602052604081205484106112705760405163cf468e4360e01b815260040160405180910390fd5b336000908152600d6020526040812080548690811061129157611291612700565b600091825260208083206040805160a08101825260039094029091018054845260018101549284019290925260029091015463ffffffff80821692840192909252600160201b810482166060840152600160401b90041660808201529150806112f861147f565b905060008360800151600161130d919061285c565b63ffffffff1690505b818110156113c9576000805b87811015611364578289898381811061133d5761133d612700565b90506020020135036113525760019150611364565b8061135c816127dd565b915050611322565b5080156113b657600061137683610c35565b9050600061138384610bce565b905080156113b3578087602001518361139c9190612791565b6113a691906127a8565b6113b090876127ca565b95505b50505b50806113c1816127dd565b915050611316565b50909695505050505050565b6000336109ae8185856116ce565b6113eb61172d565b6113f3611757565b6114008686868686611d09565b801561140f5761140f8661177d565b6114196001600555565b505050505050565b600d602052816000526040600020818154811061143d57600080fd5b600091825260209091206003909102018054600182015460029092015490935090915063ffffffff80821691600160201b8104821691600160401b9091041685565b6000600954600a54426114929190612849565b61149c91906127a8565b6114a79060016127ca565b905090565b6000828152600660205260409020600101546114c781611646565b610b958383611b2b565b6060600c805480602002602001604051908101604052809291908181526020016000905b8282101561153b578382906000526020600020906002020160405180604001604052908160008201548152602001600182015481525050815260200190600101906114f5565b50505050905090565b336000908152600d602052604081205482106115735760405163cf468e4360e01b815260040160405180910390fd5b336000908152600d6020526040812080548490811061159457611594612700565b60009182526020918290206040805160a08101825260039093029091018054835260018101549383019390935260029092015463ffffffff808216938301849052600160201b820481166060840152600160401b909104166080820152600c805491935042929091811061160a5761160a612700565b906000526020600020906002020160000154826060015163ffffffff1661163191906127ca565b119392505050565b610b6b8383836001611e4b565b610a7b8133611f20565b6001600160a01b03838116600090815260016020908152604080832093861683529290522054600019811015610b9557818110156116bf57604051637dc7a0d960e11b81526001600160a01b038416600482015260248101829052604481018390526064015b60405180910390fd5b610b9584848484036000611e4b565b6001600160a01b0383166116f857604051634b637e8f60e11b8152600060048201526024016116b6565b6001600160a01b0382166117225760405163ec442f0560e01b8152600060048201526024016116b6565b610b6b838383611f59565b60026005540361175057604051633ee5aeb560e01b815260040160405180910390fd5b6002600555565b60085460ff161561177b5760405163d93c066560e01b815260040160405180910390fd5b565b336000908152600d602052604090205481106117ac5760405163cf468e4360e01b815260040160405180910390fd5b336000908152600d602052604081208054839081106117cd576117cd612700565b906000526020600020906003020190506117e682611544565b15611804576040516387c0f2d560e01b815260040160405180910390fd5b600061180e61147f565b905061181b600182612849565b6002830154600160401b900463ffffffff16101561184c57604051636b6dcacb60e11b815260040160405180910390fd5b81546001830154600f8054600090611865908490612849565b9091555050600f5461187690611c00565b336000908152600d60205260409020805461189390600190612849565b815481106118a3576118a3612700565b9060005260206000209060030201600d6000336001600160a01b03166001600160a01b0316815260200190815260200160002085815481106118e7576118e7612700565b600091825260208083208454600390930201918255600180850154908301556002938401805494909201805463ffffffff19811663ffffffff96871690811783558454600160201b9081900488160267ffffffffffffffff1990921617178082559254600160401b9081900490951690940263ffffffff60401b1990921691909117909255338152600d9091526040902080548061198757611987612880565b600082815260208120600360001990930192830201818155600181019190915560020180546bffffffffffffffffffffffff1916905590556119f36001600160a01b037f0000000000000000000000000000000000000000000000000000000000000000163383611a38565b6119fd3382611fcc565b60405181815233907f0f5bb82176feb1b5e747e28471aa92156a04d9f3ab9f45f28e2d704232b93f759060200160405180910390a250505050565b6040516001600160a01b03838116602483015260448201839052610b6b91859182169063a9059cbb906064015b604051602081830303815290604052915060e01b6020820180516001600160e01b038381831617835250505050612002565b6000611aa38383611170565b611b235760008381526006602090815260408083206001600160a01b03861684529091529020805460ff19166001179055611adb3390565b6001600160a01b0316826001600160a01b0316847f2f8788117e7eff1d82e926ec794901d17c78024a50270940304540a733656f0d60405160405180910390a4506001610717565b506000610717565b6000611b378383611170565b15611b235760008381526006602090815260408083206001600160a01b0386168085529252808320805460ff1916905551339286917ff6391f5c32d9c69d2a47ea670b442974b53935d1edc7fd64eb21e047a839171b9190a4506001610717565b611ba0612073565b6008805460ff191690557f5db9ee0a495bf2e6ff9c91a7834c1ba4fdd244a5e8aa4e537bd38aeae4b073aa335b6040516001600160a01b03909116815260200160405180910390a1565b600082611bf78584612096565b14949350505050565b6000611c0a61147f565b90508015611c465760001981015b601054811115611c44576010546000908152601160205260408082205483835291205560001901611c18565b505b600081815260116020526040902091909155601055565b6040516001600160a01b038481166024830152838116604483015260648201839052610b959186918216906323b872dd90608401611a65565b6001600160a01b038216611cc05760405163ec442f0560e01b8152600060048201526024016116b6565b610f7460008383611f59565b611cd4611757565b6008805460ff191660011790557f62e78cea01bee320cd4e420270b5ea74000d11b0c9f74754ebdbfc544b05a258611bcd3390565b336000908152600d60205260409020548510611d385760405163cf468e4360e01b815260040160405180910390fd5b336000908152600d60205260408120805487908110611d5957611d59612700565b906000526020600020906003020190506000611d78878787878761074b565b90508585611d87600182612849565b818110611d9657611d96612700565b9050602002016020810190611dab9190612716565b60028301805463ffffffff92909216600160401b0263ffffffff60401b199092169190911790558015611e4257611e0c6001600160a01b037f0000000000000000000000000000000000000000000000000000000000000000163383611a38565b60405181815233907f106f923f993c2149d49b4255ff723acafa1f2d94393f561d3eda32ae348f72419060200160405180910390a25b50505050505050565b6001600160a01b038416611e755760405163e602df0560e01b8152600060048201526024016116b6565b6001600160a01b038316611e9f57604051634a1406b160e11b8152600060048201526024016116b6565b6001600160a01b0380851660009081526001602090815260408083209387168352929052208290558015610b9557826001600160a01b0316846001600160a01b03167f8c5be1e5ebec7d5bd14f71427d1e84f3dd0314c0f7b2291e5b200ac8c7c3b92584604051611f1291815260200190565b60405180910390a350505050565b611f2a8282611170565b610f745760405163e2517d3f60e01b81526001600160a01b0382166004820152602481018390526044016116b6565b6001600160a01b03831615801590611f7a57506001600160a01b0383163014155b8015611f8f57506001600160a01b0382163014155b8015611fa357506001600160a01b03821615155b15611fc157604051638cd22d1960e01b815260040160405180910390fd5b610b6b8383836120e3565b6001600160a01b038216611ff657604051634b637e8f60e11b8152600060048201526024016116b6565b610f7482600083611f59565b600080602060008451602086016000885af180612025576040513d6000823e3d81fd5b50506000513d9150811561203d57806001141561204a565b6001600160a01b0384163b155b15610b9557604051635274afe760e01b81526001600160a01b03851660048201526024016116b6565b60085460ff1661177b57604051638dfc202b60e01b815260040160405180910390fd5b600081815b84518110156120db576120c7828683815181106120ba576120ba612700565b602002602001015161220d565b9150806120d3816127dd565b91505061209b565b509392505050565b6001600160a01b03831661210e57806002600082825461210391906127ca565b909155506121809050565b6001600160a01b038316600090815260208190526040902054818110156121615760405163391434e360e21b81526001600160a01b038516600482015260248101829052604481018390526064016116b6565b6001600160a01b03841660009081526020819052604090209082900390555b6001600160a01b03821661219c576002805482900390556121bb565b6001600160a01b03821660009081526020819052604090208054820190555b816001600160a01b0316836001600160a01b03167fddf252ad1be2c89b69c2b068fc378daa952ba7f163c4a11628f55a4df523b3ef8360405161220091815260200190565b60405180910390a3505050565b6000818310612229576000828152602084905260409020612238565b60008381526020839052604090205b9392505050565b60006020828403121561225157600080fd5b81356001600160e01b03198116811461223857600080fd5b60006020828403121561227b57600080fd5b5035919050565b60008083601f84011261229457600080fd5b50813567ffffffffffffffff8111156122ac57600080fd5b6020830191508360208260051b85010111156122c757600080fd5b9250929050565b6000806000806000606086880312156122e657600080fd5b85359450602086013567ffffffffffffffff8082111561230557600080fd5b61231189838a01612282565b9096509450604088013591508082111561232a57600080fd5b5061233788828901612282565b969995985093965092949392505050565b600060208083528351808285015260005b8181101561237557858101830151858201604001528201612359565b506000604082860101526040601f19601f8301168501019250505092915050565b80356001600160a01b03811681146123ad57600080fd5b919050565b600080604083850312156123c557600080fd5b6123ce83612396565b946020939093013593505050565b600080604083850312156123ef57600080fd5b50508035926020909101359150565b60008060006060848603121561241357600080fd5b61241c84612396565b925061242a60208501612396565b9150604084013590509250925092565b6000806040838503121561244d57600080fd5b8235915061245d60208401612396565b90509250929050565b6000806000806060858703121561247c57600080fd5b8435935061248c60208601612396565b9250604085013567ffffffffffffffff8111156124a857600080fd5b6124b487828801612282565b95989497509550505050565b6000602082840312156124d257600080fd5b61223882612396565b803563ffffffff811681146123ad57600080fd5b6000806040838503121561250257600080fd5b8235915061245d602084016124db565b60008060006060848603121561252757600080fd5b505081359360208301359350604090920135919050565b602080825282518282018190526000919060409081850190868401855b828110156125aa5781518051855286810151878601528581015163ffffffff90811687870152606080830151821690870152608091820151169085015260a0909301929085019060010161255b565b5091979650505050505050565b6000806000604084860312156125cc57600080fd5b83359250602084013567ffffffffffffffff8111156125ea57600080fd5b6125f686828701612282565b9497909650939450505050565b6000806000806000806080878903121561261c57600080fd5b86359550602087013567ffffffffffffffff8082111561263b57600080fd5b6126478a838b01612282565b9097509550604089013591508082111561266057600080fd5b5061266d89828a01612282565b9094509250506060870135801515811461268657600080fd5b809150509295509295509295565b600080604083850312156126a757600080fd5b6126b083612396565b915061245d60208401612396565b602080825282518282018190526000919060409081850190868401855b828110156125aa578151805185528601518685015292840192908501906001016126db565b634e487b7160e01b600052603260045260246000fd5b60006020828403121561272857600080fd5b612238826124db565b6000808335601e1984360301811261274857600080fd5b83018035915067ffffffffffffffff82111561276357600080fd5b6020019150600581901b36038213156122c757600080fd5b634e487b7160e01b600052601160045260246000fd5b80820281158282048414176107175761071761277b565b6000826127c557634e487b7160e01b600052601260045260246000fd5b500490565b808201808211156107175761071761277b565b6000600182016127ef576127ef61277b565b5060010190565b600181811c9082168061280a57607f821691505b60208210810361282a57634e487b7160e01b600052602260045260246000fd5b50919050565b60006020828403121561284257600080fd5b5051919050565b818103818111156107175761071761277b565b63ffffffff8181168382160190808211156128795761287961277b565b5092915050565b634e487b7160e01b600052603160045260246000fdfea26469706673582212200ddea1688b7a81fcc7fd53ecc07fec56a11f51205f98075236fe423609cc1dec64736f6c63430008140033",
  "linkReferences": {},
  "deployedLinkReferences": {}
}