{
  "_format": "hh-sol-artifact-1",
  "contractName": "RealToken",
  "sourceName": "contracts/RealToken.sol",
  "abi": [
    {
      "inputs": [
        {
          "internalType": "address",
          "name": "recipient",
          "type": "address"
        }
      ],
      "stateMutability": "nonpayable",
      "type": "constructor"
    },
    {
      "inputs": [
        {
          "internalType": "address",
          "name": "spender",
          "type": "address"
        },
        {
          "internalType": "uint256",
          "name": "allowance",
          "type": "uint256"
        },
        {
          "internalType": "uint256",
          "name": "needed",
          "type": "uint256"
        }
      ],
      "name": "ERC20InsufficientAllowance",
      "type": "error"
    },
    {
      "inputs": [
        {
          "internalType": "address",
          "name": "sender",
          "type": "address"
        },
        {
          "internalType": "uint256",
          "name": "balance",
          "type": "uint256"
        },
        {
          "internalType": "uint256",
          "name": "needed",
          "type": "uint256"
        }
      ],
      "name": "ERC20InsufficientBalance",
      "type": "error"
    },
    {
      "inputs": [
        {
          "internalType": "address",
          "name": "approver",
          "type": "address"
        }
      ],
      "name": "ERC20InvalidApprover",
      "type": "error"
    },
    {
      "inputs": [
        {
          "internalType": "address",
          "name": "receiver",
          "type": "address"
        }
      ],
      "name": "ERC20InvalidReceiver",
      "type": "error"
    },
    {
      "inputs": [
        {
          "internalType": "address",
          "name": "sender",
          "type": "address"
        }
      ],
      "name": "ERC20InvalidSender",
      "type": "error"
    },
    {
      "inputs": [
        {
          "internalType": "address",
          "name": "spender",
          "type": "address"
        }
      ],
      "name": "ERC20InvalidSpender",
      "type": "error"
    },
    {
      "anonymous": false,
      "inputs": [
        {
          "indexed": true,
          "internalType": "address",
          "name": "owner",
          "type": "address"
        },
        {
          "indexed": true,
          "internalType": "address",
          "name": "spender",
          "type": "address"
        },
        {
          "indexed": false,
          "internalType": "uint256",
          "name": "value",
          "type": "uint256"
        }
      ],
      "name": "Approval",
      "type": "event"
    },
    {
      "anonymous": false,
      "inputs": [
        {
          "indexed": true,
          "internalType": "address",
          "name": "from",
          "type": "address"
        },
        {
          "indexed": true,
          "internalType": "address",
          "name": "to",
          "type": "address"
        },
        {
          "indexed": false,
          "internalType": "uint256",
          "name": "value",
          "type": "uint256"
        }
      ],
      "name": "Transfer",
      "type": "event"
    },
    {
      "inputs": [
        {
          "internalType": "address",
          "name": "owner",
          "type": "address"
        },
        {
          "internalType": "address",
          "name": "spender",
          "type": "address"
        }
      ],
      "name": "allowance",
      "outputs": [
        {
          "internalType": "uint256",
          "name": "",
          "type": "uint256"
        }
      ],
      "stateMutability": "view",
      "type": "function"
    },
    {
      "inputs": [
        {
          "internalType": "address",
          "name": "spender",
          "type": "address"
        },
        {
          "internalType": "uint256",
          "name": "value",
          "type": "uint256"
        }
      ],
      "name": "approve",
      "outputs": [
        {
          "internalType": "bool",
          "name": "",
          "type": "bool"
        }
      ],
      "stateMutability": "nonpayable",
      "type": "function"
    },
    {
      "inputs": [
        {
          "internalType": "address",
          "name": "account",
          "type": "address"
        }
      ],
      "name": "balanceOf",
      "outputs": [
        {
          "internalType": "uint256",
          "name": "",
          "type": "uint256"
        }
      ],
      "stateMutability": "view",
      "type": "function"
    },
    {
      "inputs": [
        {
          "internalType": "uint256",
          "name": "value",
          "type": "uint256"
        }
      ],
      "name": "burn",
      "outputs": [],
      "stateMutability": "nonpayable",
      "type": "function"
    },
    {
      "inputs": [
        {
          "internalType": "address",
          "name": "account",
          "type": "address"
        },
        {
          "internalType": "uint256",
          "name": "value",
          "type": "uint256"
        }
      ],
      "name": "burnFrom",
      "outputs": [],
      "stateMutability": "nonpayable",
      "type": "function"
    },
    {
      "inputs": [],
      "name": "decimals",
      "outputs": [
        {
          "internalType": "uint8",
          "name": "",
          "type": "uint8"
        }
      ],
      "stateMutability": "view",
      "type": "function"
    },
    {
      "inputs": [],
      "name": "name",
      "outputs": [
        {
          "internalType": "string",
          "name": "",
          "type": "string"
        }
      ],
      "stateMutability": "view",
      "type": "function"
    },
    {
      "inputs": [],
      "name": "symbol",
      "outputs": [
        {
          "internalType": "string",
          "name": "",
          "type": "string"
        }
      ],
      "stateMutability": "view",
      "type": "function"
    },
    {
      "inputs": [],
      "name": "totalSupply",
      "outputs": [
        {
          "internalType": "uint256",
          "name": "",
          "type": "uint256"
        }
      ],
      "stateMutability": "view",
      "type": "function"
    },
    {
      "inputs": [
        {
          "internalType": "address",
          "name": "to",
          "type": "address"
        },
        {
          "internalType": "uint256",
          "name": "value",
          "type": "uint256"
        }
      ],
      "name": "transfer",
      "outputs": [
        {
          "internalType": "bool",
          "name": "",
          "type": "bool"
        }
      ],
      "stateMutability": "nonpayable",
      "type": "function"
    },
    {
      "inputs": [
        {
          "internalType": "address",
          "name": "from",
          "type": "address"
        },
        {
          "internalType": "address",
          "name": "to",
          "type": "address"
        },
        {
          "internalType": "uint256",
          "name": "value",
          "type": "uint256"
        }
      ],
      "name": "transferFrom",
      "outputs": [
        {
          "internalType": "bool",
          "name": "",
          "type": "bool"
        }
      ],
      "stateMutability": "nonpayable",
      "type": "function"
    }
  ],
  "bytecode": "0x60806040523480156200001157600080fd5b5060405162001a6a38038062001a6a833981810160405281019062000037919062000440565b6040518060400160405280600481526020017f5245414c000000000000000000000000000000000000000000000000000000008152506040518060400160405280600481526020017f5245414c000000000000000000000000000000000000000000000000000000008152508160039081620000b49190620006ec565b508060049081620000c69190620006ec565b5050506200010981620000de6200011060201b60201c565b600a620000ec919062000963565b6377359400620000fd9190620009b4565b6200011960201b60201c565b5062000ad3565b60006012905090565b600073ffffffffffffffffffffffffffffffffffffffff168273ffffffffffffffffffffffffffffffffffffffff16036200018e5760006040517fec442f0500000000000000000000000000000000000000000000000000000000815260040162000185919062000a10565b60405180910390fd5b620001a260008383620001a660201b60201c565b5050565b600073ffffffffffffffffffffffffffffffffffffffff168373ffffffffffffffffffffffffffffffffffffffff1603620001fc578060026000828254620001ef919062000a2d565b92505081905550620002d2565b60008060008573ffffffffffffffffffffffffffffffffffffffff1673ffffffffffffffffffffffffffffffffffffffff168152602001908152602001600020549050818110156200028b578381836040517fe450d38c000000000000000000000000000000000000000000000000000000008152600401620002829392919062000a79565b60405180910390fd5b8181036000808673ffffffffffffffffffffffffffffffffffffffff1673ffffffffffffffffffffffffffffffffffffffff16815260200190815260200160002081905550505b600073ffffffffffffffffffffffffffffffffffffffff168273ffffffffffffffffffffffffffffffffffffffff16036200031d57806002600082825403925050819055506200036a565b806000808473ffffffffffffffffffffffffffffffffffffffff1673ffffffffffffffffffffffffffffffffffffffff168152602001908152602001600020600082825401925050819055505b8173ffffffffffffffffffffffffffffffffffffffff168373ffffffffffffffffffffffffffffffffffffffff167fddf252ad1be2c89b69c2b068fc378daa952ba7f163c4a11628f55a4df523b3ef83604051620003c9919062000ab6565b60405180910390a3505050565b600080fd5b600073ffffffffffffffffffffffffffffffffffffffff82169050919050565b60006200040882620003db565b9050919050565b6200041a81620003fb565b81146200042657600080fd5b50565b6000815190506200043a816200040f565b92915050565b600060208284031215620004595762000458620003d6565b5b6000620004698482850162000429565b91505092915050565b600081519050919050565b7f4e487b7100000000000000000000000000000000000000000000000000000000600052604160045260246000fd5b7f4e487b7100000000000000000000000000000000000000000000000000000000600052602260045260246000fd5b60006002820490506001821680620004f457607f821691505b6020821081036200050a5762000509620004ac565b5b50919050565b60008190508160005260206000209050919050565b60006020601f8301049050919050565b600082821b905092915050565b600060088302620005747fffffffffffffffffffffffffffffffffffffffffffffffffffffffffffffffff8262000535565b62000580868362000535565b95508019841693508086168417925050509392505050565b6000819050919050565b6000819050919050565b6000620005cd620005c7620005c18462000598565b620005a2565b62000598565b9050919050565b6000819050919050565b620005e983620005ac565b62000601620005f882620005d4565b84845462000542565b825550505050565b600090565b6200061862000609565b62000625818484620005de565b505050565b5b818110156200064d57620006416000826200060e565b6001810190506200062b565b5050565b601f8211156200069c57620006668162000510565b620006718462000525565b8101602085101562000681578190505b62000699620006908562000525565b8301826200062a565b50505b505050565b600082821c905092915050565b6000620006c160001984600802620006a1565b1980831691505092915050565b6000620006dc8383620006ae565b9150826002028217905092915050565b620006f78262000472565b67ffffffffffffffff8111156200071357620007126200047d565b5b6200071f8254620004db565b6200072c82828562000651565b600060209050601f8311600181146200076457600084156200074f578287015190505b6200075b8582620006ce565b865550620007cb565b601f198416620007748662000510565b60005b828110156200079e5784890151825560018201915060208501945060208101905062000777565b86831015620007be5784890151620007ba601f891682620006ae565b8355505b6001600288020188555050505b505050505050565b7f4e487b7100000000000000000000000000000000000000000000000000000000600052601160045260246000fd5b60008160011c9050919050565b6000808291508390505b60018511156200086157808604811115620008395762000838620007d3565b5b6001851615620008495780820291505b8081029050620008598562000802565b945062000819565b94509492505050565b6000826200087c57600190506200094f565b816200088c57600090506200094f565b8160018114620008a55760028114620008b057620008e6565b60019150506200094f565b60ff841115620008c557620008c4620007d3565b5b8360020a915084821115620008df57620008de620007d3565b5b506200094f565b5060208310610133831016604e8410600b8410161715620009205782820a9050838111156200091a5762000919620007d3565b5b6200094f565b6200092f84848460016200080f565b92509050818404811115620009495762000948620007d3565b5b81810290505b9392505050565b600060ff82169050919050565b6000620009708262000598565b91506200097d8362000956565b9250620009ac7fffffffffffffffffffffffffffffffffffffffffffffffffffffffffffffffff84846200086a565b905092915050565b6000620009c18262000598565b9150620009ce8362000598565b9250828202620009de8162000598565b91508282048414831517620009f857620009f7620007d3565b5b5092915050565b62000a0a81620003fb565b82525050565b600060208201905062000a276000830184620009ff565b92915050565b600062000a3a8262000598565b915062000a478362000598565b925082820190508082111562000a625762000a61620007d3565b5b92915050565b62000a738162000598565b82525050565b600060608201905062000a906000830186620009ff565b62000a9f602083018562000a68565b62000aae604083018462000a68565b949350505050565b600060208201905062000acd600083018462000a68565b92915050565b610f878062000ae36000396000f3fe608060405234801561001057600080fd5b50600436106100a95760003560e01c806342966c681161007157806342966c681461016857806370a082311461018457806379cc6790146101b457806395d89b41146101d0578063a9059cbb146101ee578063dd62ed3e1461021e576100a9565b806306fdde03146100ae578063095ea7b3146100cc57806318160ddd146100fc57806323b872dd1461011a578063313ce5671461014a575b600080fd5b6100b661024e565b6040516100c39190610bae565b60405180910390f35b6100e660048036038101906100e19190610c69565b6102e0565b6040516100f39190610cc4565b60405180910390f35b610104610303565b6040516101119190610cee565b60405180910390f35b610134600480360381019061012f9190610d09565b61030d565b6040516101419190610cc4565b60405180910390f35b61015261033c565b60405161015f9190610d78565b60405180910390f35b610182600480360381019061017d9190610d93565b610345565b005b61019e60048036038101906101999190610dc0565b610359565b6040516101ab9190610cee565b60405180910390f35b6101ce60048036038101906101c99190610c69565b6103a1565b005b6101d86103c1565b6040516101e59190610bae565b60405180910390f35b61020860048036038101906102039190610c69565b610453565b6040516102159190610cc4565b60405180910390f35b61023860048036038101906102339190610ded565b610476565b6040516102459190610cee565b60405180910390f35b60606003805461025d90610e5c565b80601f016020809104026020016040519081016040528092919081815260200182805461028990610e5c565b80156102d65780601f106102ab576101008083540402835291602001916102d6565b820191906000526020600020905b8154815290600101906020018083116102b957829003601f168201915b5050505050905090565b6000806102eb6104fd565b90506102f8818585610505565b600191505092915050565b6000600254905090565b6000806103186104fd565b9050610325858285610517565b6103308585856105ac565b60019150509392505050565b60006012905090565b6103566103506104fd565b826106a0565b50565b60008060008373ffffffffffffffffffffffffffffffffffffffff1673ffffffffffffffffffffffffffffffffffffffff168152602001908152602001600020549050919050565b6103b3826103ad6104fd565b83610517565b6103bd82826106a0565b5050565b6060600480546103d090610e5c565b80601f01602080910402602001604051908101604052809291908181526020018280546103fc90610e5c565b80156104495780601f1061041e57610100808354040283529160200191610449565b820191906000526020600020905b81548152906001019060200180831161042c57829003601f168201915b5050505050905090565b60008061045e6104fd565b905061046b8185856105ac565b600191505092915050565b6000600160008473ffffffffffffffffffffffffffffffffffffffff1673ffffffffffffffffffffffffffffffffffffffff16815260200190815260200160002060008373ffffffffffffffffffffffffffffffffffffffff1673ffffffffffffffffffffffffffffffffffffffff16815260200190815260200160002054905092915050565b600033905090565b6105128383836001610722565b505050565b60006105238484610476565b90507fffffffffffffffffffffffffffffffffffffffffffffffffffffffffffffffff8110156105a65781811015610596578281836040517ffb8f41b200000000000000000000000000000000000000000000000000000000815260040161058d93929190610e9c565b60405180910390fd5b6105a584848484036000610722565b5b50505050565b600073ffffffffffffffffffffffffffffffffffffffff168373ffffffffffffffffffffffffffffffffffffffff160361061e5760006040517f96c6fd1e0000000000000000000000000000000000000000000000000000000081526004016106159190610ed3565b60405180910390fd5b600073ffffffffffffffffffffffffffffffffffffffff168273ffffffffffffffffffffffffffffffffffffffff16036106905760006040517fec442f050000000000000000000000000000000000000000000000000000000081526004016106879190610ed3565b60405180910390fd5b61069b8383836108f9565b505050565b600073ffffffffffffffffffffffffffffffffffffffff168273ffffffffffffffffffffffffffffffffffffffff16036107125760006040517f96c6fd1e0000000000000000000000000000000000000000000000000000000081526004016107099190610ed3565b60405180910390fd5b61071e826000836108f9565b5050565b600073ffffffffffffffffffffffffffffffffffffffff168473ffffffffffffffffffffffffffffffffffffffff16036107945760006040517fe602df0500000000000000000000000000000000000000000000000000000000815260040161078b9190610ed3565b60405180910390fd5b600073ffffffffffffffffffffffffffffffffffffffff168373ffffffffffffffffffffffffffffffffffffffff16036108065760006040517f94280d620000000000000000000000000000000000000000000000000000000081526004016107fd9190610ed3565b60405180910390fd5b81600160008673ffffffffffffffffffffffffffffffffffffffff1673ffffffffffffffffffffffffffffffffffffffff16815260200190815260200160002060008573ffffffffffffffffffffffffffffffffffffffff1673ffffffffffffffffffffffffffffffffffffffff1681526020019081526020016000208190555080156108f3578273ffffffffffffffffffffffffffffffffffffffff168473ffffffffffffffffffffffffffffffffffffffff167f8c5be1e5ebec7d5bd14f71427d1e84f3dd0314c0f7b2291e5b200ac8c7c3b925846040516108ea9190610cee565b60405180910390a35b50505050565b600073ffffffffffffffffffffffffffffffffffffffff168373ffffffffffffffffffffffffffffffffffffffff160361094b57806002600082825461093f9190610f1d565b92505081905550610a1e565b60008060008573ffffffffffffffffffffffffffffffffffffffff1673ffffffffffffffffffffffffffffffffffffffff168152602001908152602001600020549050818110156109d7578381836040517fe450d38c0000000000000000000000000000000000000000000000000000000081526004016109ce93929190610e9c565b60405180910390fd5b8181036000808673ffffffffffffffffffffffffffffffffffffffff1673ffffffffffffffffffffffffffffffffffffffff16815260200190815260200160002081905550505b600073ffffffffffffffffffffffffffffffffffffffff168273ffffffffffffffffffffffffffffffffffffffff1603610a675780600260008282540392505081905550610ab4565b806000808473ffffffffffffffffffffffffffffffffffffffff1673ffffffffffffffffffffffffffffffffffffffff168152602001908152602001600020600082825401925050819055505b8173ffffffffffffffffffffffffffffffffffffffff168373ffffffffffffffffffffffffffffffffffffffff167fddf252ad1be2c89b69c2b068fc378daa952ba7f163c4a11628f55a4df523b3ef83604051610b119190610cee565b60405180910390a3505050565b600081519050919050565b600082825260208201905092915050565b60005b83811015610b58578082015181840152602081019050610b3d565b60008484015250505050565b6000601f19601f8301169050919050565b6000610b8082610b1e565b610b8a8185610b29565b9350610b9a818560208601610b3a565b610ba381610b64565b840191505092915050565b60006020820190508181036000830152610bc88184610b75565b905092915050565b600080fd5b600073ffffffffffffffffffffffffffffffffffffffff82169050919050565b6000610c0082610bd5565b9050919050565b610c1081610bf5565b8114610c1b57600080fd5b50565b600081359050610c2d81610c07565b92915050565b6000819050919050565b610c4681610c33565b8114610c5157600080fd5b50565b600081359050610c6381610c3d565b92915050565b60008060408385031215610c8057610c7f610bd0565b5b6000610c8e85828601610c1e565b9250506020610c9f85828601610c54565b9150509250929050565b60008115159050919050565b610cbe81610ca9565b82525050565b6000602082019050610cd96000830184610cb5565b92915050565b610ce881610c33565b82525050565b6000602082019050610d036000830184610cdf565b92915050565b600080600060608486031215610d2257610d21610bd0565b5b6000610d3086828701610c1e565b9350506020610d4186828701610c1e565b9250506040610d5286828701610c54565b9150509250925092565b600060ff82169050919050565b610d7281610d5c565b82525050565b6000602082019050610d8d6000830184610d69565b92915050565b600060208284031215610da957610da8610bd0565b5b6000610db784828501610c54565b91505092915050565b600060208284031215610dd657610dd5610bd0565b5b6000610de484828501610c1e565b91505092915050565b60008060408385031215610e0457610e03610bd0565b5b6000610e1285828601610c1e565b9250506020610e2385828601610c1e565b9150509250929050565b7f4e487b7100000000000000000000000000000000000000000000000000000000600052602260045260246000fd5b60006002820490506001821680610e7457607f821691505b602082108103610e8757610e86610e2d565b5b50919050565b610e9681610bf5565b82525050565b6000606082019050610eb16000830186610e8d565b610ebe6020830185610cdf565b610ecb6040830184610cdf565b949350505050565b6000602082019050610ee86000830184610e8d565b92915050565b7f4e487b7100000000000000000000000000000000000000000000000000000000600052601160045260246000fd5b6000610f2882610c33565b9150610f3383610c33565b9250828201905080821115610f4b57610f4a610eee565b5b9291505056fea26469706673582212204381b6dfb153325c534796141a3ae60402bb7a9da59802017b64a8677f7d1fd064736f6c63430008180033",
  "linkReferences": {},
  "deployedLinkReferences": {}
}