{
  "_format": "hh-sol-artifact-1",
  "contractName": "TokenVesting",
  "sourceName": "contracts/TokenVesting.sol",
  "abi": [
    {
      "inputs": [
        {
          "internalType": "address",
          "name": "token_",
          "type": "address"
        }
      ],
      "stateMutability": "nonpayable",
      "type": "constructor"
    },
    {
      "anonymous": false,
      "inputs": [
        {
          "indexed": true,
          "internalType": "address",
          "name": "user",
          "type": "address"
        },
        {
          "indexed": true,
          "internalType": "address",
          "name": "newOwner",
          "type": "address"
        }
      ],
      "name": "OwnershipTransferred",
      "type": "event"
    },
    {
      "stateMutability": "payable",
      "type": "fallback"
    },
    {
      "inputs": [
        {
          "internalType": "address",
          "name": "holder",
          "type": "address"
        }
      ],
      "name": "computeNextVestingScheduleIdForHolder",
      "outputs": [
        {
          "internalType": "bytes32",
          "name": "",
          "type": "bytes32"
        }
      ],
      "stateMutability": "view",
      "type": "function"
    },
    {
      "inputs": [
        {
          "internalType": "bytes32",
          "name": "vestingScheduleId",
          "type": "bytes32"
        }
      ],
      "name": "computeReleasableAmount",
      "outputs": [
        {
          "internalType": "uint256",
          "name": "",
          "type": "uint256"
        }
      ],
      "stateMutability": "view",
      "type": "function"
    },
    {
      "inputs": [
        {
          "internalType": "address",
          "name": "holder",
          "type": "address"
        },
        {
          "internalType": "uint256",
          "name": "index",
          "type": "uint256"
        }
      ],
      "name": "computeVestingScheduleIdForAddressAndIndex",
      "outputs": [
        {
          "internalType": "bytes32",
          "name": "",
          "type": "bytes32"
        }
      ],
      "stateMutability": "pure",
      "type": "function"
    },
    {
      "inputs": [
        {
          "internalType": "address",
          "name": "_beneficiary",
          "type": "address"
        },
        {
          "internalType": "uint256",
          "name": "_start",
          "type": "uint256"
        },
        {
          "internalType": "uint256",
          "name": "_cliff",
          "type": "uint256"
        },
        {
          "internalType": "uint256",
          "name": "_duration",
          "type": "uint256"
        },
        {
          "internalType": "uint256",
          "name": "_slicePeriodSeconds",
          "type": "uint256"
        },
        {
          "internalType": "bool",
          "name": "_revocable",
          "type": "bool"
        },
        {
          "internalType": "uint256",
          "name": "_amount",
          "type": "uint256"
        }
      ],
      "name": "createVestingSchedule",
      "outputs": [],
      "stateMutability": "nonpayable",
      "type": "function"
    },
    {
      "inputs": [
        {
          "internalType": "address",
          "name": "holder",
          "type": "address"
        }
      ],
      "name": "getLastVestingScheduleForHolder",
      "outputs": [
        {
          "components": [
            {
              "internalType": "address",
              "name": "beneficiary",
              "type": "address"
            },
            {
              "internalType": "uint256",
              "name": "cliff",
              "type": "uint256"
            },
            {
              "internalType": "uint256",
              "name": "start",
              "type": "uint256"
            },
            {
              "internalType": "uint256",
              "name": "duration",
              "type": "uint256"
            },
            {
              "internalType": "uint256",
              "name": "slicePeriodSeconds",
              "type": "uint256"
            },
            {
              "internalType": "bool",
              "name": "revocable",
              "type": "bool"
            },
            {
              "internalType": "uint256",
              "name": "amountTotal",
              "type": "uint256"
            },
            {
              "internalType": "uint256",
              "name": "released",
              "type": "uint256"
            },
            {
              "internalType": "bool",
              "name": "revoked",
              "type": "bool"
            }
          ],
          "internalType": "struct TokenVesting.VestingSchedule",
          "name": "",
          "type": "tuple"
        }
      ],
      "stateMutability": "view",
      "type": "function"
    },
    {
      "inputs": [],
      "name": "getToken",
      "outputs": [
        {
          "internalType": "address",
          "name": "",
          "type": "address"
        }
      ],
      "stateMutability": "view",
      "type": "function"
    },
    {
      "inputs": [
        {
          "internalType": "uint256",
          "name": "index",
          "type": "uint256"
        }
      ],
      "name": "getVestingIdAtIndex",
      "outputs": [
        {
          "internalType": "bytes32",
          "name": "",
          "type": "bytes32"
        }
      ],
      "stateMutability": "view",
      "type": "function"
    },
    {
      "inputs": [
        {
          "internalType": "bytes32",
          "name": "vestingScheduleId",
          "type": "bytes32"
        }
      ],
      "name": "getVestingSchedule",
      "outputs": [
        {
          "components": [
            {
              "internalType": "address",
              "name": "beneficiary",
              "type": "address"
            },
            {
              "internalType": "uint256",
              "name": "cliff",
              "type": "uint256"
            },
            {
              "internalType": "uint256",
              "name": "start",
              "type": "uint256"
            },
            {
              "internalType": "uint256",
              "name": "duration",
              "type": "uint256"
            },
            {
              "internalType": "uint256",
              "name": "slicePeriodSeconds",
              "type": "uint256"
            },
            {
              "internalType": "bool",
              "name": "revocable",
              "type": "bool"
            },
            {
              "internalType": "uint256",
              "name": "amountTotal",
              "type": "uint256"
            },
            {
              "internalType": "uint256",
              "name": "released",
              "type": "uint256"
            },
            {
              "internalType": "bool",
              "name": "revoked",
              "type": "bool"
            }
          ],
          "internalType": "struct TokenVesting.VestingSchedule",
          "name": "",
          "type": "tuple"
        }
      ],
      "stateMutability": "view",
      "type": "function"
    },
    {
      "inputs": [
        {
          "internalType": "address",
          "name": "holder",
          "type": "address"
        },
        {
          "internalType": "uint256",
          "name": "index",
          "type": "uint256"
        }
      ],
      "name": "getVestingScheduleByAddressAndIndex",
      "outputs": [
        {
          "components": [
            {
              "internalType": "address",
              "name": "beneficiary",
              "type": "address"
            },
            {
              "internalType": "uint256",
              "name": "cliff",
              "type": "uint256"
            },
            {
              "internalType": "uint256",
              "name": "start",
              "type": "uint256"
            },
            {
              "internalType": "uint256",
              "name": "duration",
              "type": "uint256"
            },
            {
              "internalType": "uint256",
              "name": "slicePeriodSeconds",
              "type": "uint256"
            },
            {
              "internalType": "bool",
              "name": "revocable",
              "type": "bool"
            },
            {
              "internalType": "uint256",
              "name": "amountTotal",
              "type": "uint256"
            },
            {
              "internalType": "uint256",
              "name": "released",
              "type": "uint256"
            },
            {
              "internalType": "bool",
              "name": "revoked",
              "type": "bool"
            }
          ],
          "internalType": "struct TokenVesting.VestingSchedule",
          "name": "",
          "type": "tuple"
        }
      ],
      "stateMutability": "view",
      "type": "function"
    },
    {
      "inputs": [],
      "name": "getVestingSchedulesCount",
      "outputs": [
        {
          "internalType": "uint256",
          "name": "",
          "type": "uint256"
        }
      ],
      "stateMutability": "view",
      "type": "function"
    },
    {
      "inputs": [
        {
          "internalType": "address",
          "name": "_beneficiary",
          "type": "address"
        }
      ],
      "name": "getVestingSchedulesCountByBeneficiary",
      "outputs": [
        {
          "internalType": "uint256",
          "name": "",
          "type": "uint256"
        }
      ],
      "stateMutability": "view",
      "type": "function"
    },
    {
      "inputs": [],
      "name": "getVestingSchedulesTotalAmount",
      "outputs": [
        {
          "internalType": "uint256",
          "name": "",
          "type": "uint256"
        }
      ],
      "stateMutability": "view",
      "type": "function"
    },
    {
      "inputs": [],
      "name": "getWithdrawableAmount",
      "outputs": [
        {
          "internalType": "uint256",
          "name": "",
          "type": "uint256"
        }
      ],
      "stateMutability": "view",
      "type": "function"
    },
    {
      "inputs": [],
      "name": "owner",
      "outputs": [
        {
          "internalType": "address",
          "name": "",
          "type": "address"
        }
      ],
      "stateMutability": "view",
      "type": "function"
    },
    {
      "inputs": [
        {
          "internalType": "bytes32",
          "name": "vestingScheduleId",
          "type": "bytes32"
        },
        {
          "internalType": "uint256",
          "name": "amount",
          "type": "uint256"
        }
      ],
      "name": "release",
      "outputs": [],
      "stateMutability": "nonpayable",
      "type": "function"
    },
    {
      "inputs": [
        {
          "internalType": "bytes32",
          "name": "vestingScheduleId",
          "type": "bytes32"
        }
      ],
      "name": "revoke",
      "outputs": [],
      "stateMutability": "nonpayable",
      "type": "function"
    },
    {
      "inputs": [
        {
          "internalType": "address",
          "name": "newOwner",
          "type": "address"
        }
      ],
      "name": "transferOwnership",
      "outputs": [],
      "stateMutability": "nonpayable",
      "type": "function"
    },
    {
      "inputs": [
        {
          "internalType": "uint256",
          "name": "amount",
          "type": "uint256"
        }
      ],
      "name": "withdraw",
      "outputs": [],
      "stateMutability": "nonpayable",
      "type": "function"
    },
    {
      "stateMutability": "payable",
      "type": "receive"
    }
  ],
  "bytecode": "0x60a0604052600180553480156200001557600080fd5b50604051620028953803806200289583398181016040528101906200003b9190620001b7565b33806000806101000a81548173ffffffffffffffffffffffffffffffffffffffff021916908373ffffffffffffffffffffffffffffffffffffffff1602179055508073ffffffffffffffffffffffffffffffffffffffff16600073ffffffffffffffffffffffffffffffffffffffff167f8be0079c531659141344cd1fd0a4f28419497f9722a3daafe3b4186f6b6457e060405160405180910390a350600073ffffffffffffffffffffffffffffffffffffffff168173ffffffffffffffffffffffffffffffffffffffff16036200011257600080fd5b8073ffffffffffffffffffffffffffffffffffffffff1660808173ffffffffffffffffffffffffffffffffffffffff168152505050620001e9565b600080fd5b600073ffffffffffffffffffffffffffffffffffffffff82169050919050565b60006200017f8262000152565b9050919050565b620001918162000172565b81146200019d57600080fd5b50565b600081519050620001b18162000186565b92915050565b600060208284031215620001d057620001cf6200014d565b5b6000620001e084828501620001a0565b91505092915050565b60805161267b6200021a600039600081816108c801528181610a1501528181610d9b0152610f7a015261267b6000f3fe60806040526004361061010d5760003560e01c80638da5cb5b11610095578063ea1bb3d511610064578063ea1bb3d514610385578063f2fde38b146103c2578063f51321d7146103eb578063f7c469f014610428578063f9079b371461046557610114565b80638da5cb5b146102c957806390be10cc146102f45780639ef346b41461031f578063b75c7dc61461035c57610114565b806348deb471116100dc57806348deb471146101be5780635a7bb69a146101e957806366afd8ef146102265780637e913dc61461024f5780638af104da1461028c57610114565b8063130836171461011657806317e289e91461014157806321df0da71461016a5780632e1a7d4d1461019557610114565b3661011457005b005b34801561012257600080fd5b5061012b6104a2565b60405161013891906118c2565b60405180910390f35b34801561014d57600080fd5b50610168600480360381019061016391906119a4565b6104af565b005b34801561017657600080fd5b5061017f6108c4565b60405161018c9190611a55565b60405180910390f35b3480156101a157600080fd5b506101bc60048036038101906101b79190611a70565b6108ec565b005b3480156101ca57600080fd5b506101d3610a45565b6040516101e091906118c2565b60405180910390f35b3480156101f557600080fd5b50610210600480360381019061020b9190611a9d565b610a4f565b60405161021d91906118c2565b60405180910390f35b34801561023257600080fd5b5061024d60048036038101906102489190611b00565b610a98565b005b34801561025b57600080fd5b5061027660048036038101906102719190611a9d565b610dd2565b6040516102839190611c24565b60405180910390f35b34801561029857600080fd5b506102b360048036038101906102ae9190611c40565b610f1c565b6040516102c09190611c8f565b60405180910390f35b3480156102d557600080fd5b506102de610f4f565b6040516102eb9190611a55565b60405180910390f35b34801561030057600080fd5b50610309610f73565b60405161031691906118c2565b60405180910390f35b34801561032b57600080fd5b5061034660048036038101906103419190611caa565b611021565b6040516103539190611c24565b60405180910390f35b34801561036857600080fd5b50610383600480360381019061037e9190611caa565b611117565b005b34801561039157600080fd5b506103ac60048036038101906103a79190611caa565b611381565b6040516103b991906118c2565b60405180910390f35b3480156103ce57600080fd5b506103e960048036038101906103e49190611a9d565b6114af565b005b3480156103f757600080fd5b50610412600480360381019061040d9190611c40565b6115da565b60405161041f9190611c24565b60405180910390f35b34801561043457600080fd5b5061044f600480360381019061044a9190611a9d565b6115fc565b60405161045c9190611c8f565b60405180910390f35b34801561047157600080fd5b5061048c60048036038101906104879190611a70565b61164e565b6040516104999190611c8f565b60405180910390f35b6000600280549050905090565b60008054906101000a900473ffffffffffffffffffffffffffffffffffffffff1673ffffffffffffffffffffffffffffffffffffffff163373ffffffffffffffffffffffffffffffffffffffff161461053d576040517f08c379a000000000000000000000000000000000000000000000000000000000815260040161053490611d34565b60405180910390fd5b80610546610f73565b1015610587576040517f08c379a000000000000000000000000000000000000000000000000000000000815260040161057e90611dec565b60405180910390fd5b600084116105ca576040517f08c379a00000000000000000000000000000000000000000000000000000000081526004016105c190611e7e565b60405180910390fd5b6000811161060d576040517f08c379a000000000000000000000000000000000000000000000000000000000815260040161060490611eea565b60405180910390fd5b6001831015610651576040517f08c379a000000000000000000000000000000000000000000000000000000000815260040161064890611f7c565b60405180910390fd5b84841015610694576040517f08c379a000000000000000000000000000000000000000000000000000000000815260040161068b9061200e565b60405180910390fd5b600061069f886115fc565b9050600086886106af919061205d565b90506040518061012001604052808a73ffffffffffffffffffffffffffffffffffffffff168152602001828152602001898152602001878152602001868152602001851515815260200184815260200160008152602001600015158152506003600084815260200190815260200160002060008201518160000160006101000a81548173ffffffffffffffffffffffffffffffffffffffff021916908373ffffffffffffffffffffffffffffffffffffffff1602179055506020820151816001015560408201518160020155606082015181600301556080820151816004015560a08201518160050160006101000a81548160ff02191690831515021790555060c0820151816006015560e082015181600701556101008201518160080160006101000a81548160ff021916908315150217905550905050826004546107f5919061205d565b60048190555060028290806001815401808255809150506001900390600052602060002001600090919091909150556000600560008b73ffffffffffffffffffffffffffffffffffffffff1673ffffffffffffffffffffffffffffffffffffffff168152602001908152602001600020549050600181610875919061205d565b600560008c73ffffffffffffffffffffffffffffffffffffffff1673ffffffffffffffffffffffffffffffffffffffff1681526020019081526020016000208190555050505050505050505050565b60007f0000000000000000000000000000000000000000000000000000000000000000905090565b6001805414610930576040517f08c379a0000000000000000000000000000000000000000000000000000000008152600401610927906120dd565b60405180910390fd5b600260018190555060008054906101000a900473ffffffffffffffffffffffffffffffffffffffff1673ffffffffffffffffffffffffffffffffffffffff163373ffffffffffffffffffffffffffffffffffffffff16146109c6576040517f08c379a00000000000000000000000000000000000000000000000000000000081526004016109bd90611d34565b60405180910390fd5b806109cf610f73565b1015610a10576040517f08c379a0000000000000000000000000000000000000000000000000000000008152600401610a079061216f565b60405180910390fd5b610a3b7f000000000000000000000000000000000000000000000000000000000000000033836116bf565b6001808190555050565b6000600454905090565b6000600560008373ffffffffffffffffffffffffffffffffffffffff1673ffffffffffffffffffffffffffffffffffffffff168152602001908152602001600020549050919050565b6001805414610adc576040517f08c379a0000000000000000000000000000000000000000000000000000000008152600401610ad3906120dd565b60405180910390fd5b6002600181905550816003600082815260200190815260200160002060080160009054906101000a900460ff1615610b1357600080fd5b600060036000858152602001908152602001600020905060008160000160009054906101000a900473ffffffffffffffffffffffffffffffffffffffff1673ffffffffffffffffffffffffffffffffffffffff163373ffffffffffffffffffffffffffffffffffffffff1614905060008060009054906101000a900473ffffffffffffffffffffffffffffffffffffffff1673ffffffffffffffffffffffffffffffffffffffff163373ffffffffffffffffffffffffffffffffffffffff161490508180610bde5750805b610c1d576040517f08c379a0000000000000000000000000000000000000000000000000000000008152600401610c1490612227565b60405180910390fd5b6000610cfc84604051806101200160405290816000820160009054906101000a900473ffffffffffffffffffffffffffffffffffffffff1673ffffffffffffffffffffffffffffffffffffffff1673ffffffffffffffffffffffffffffffffffffffff168152602001600182015481526020016002820154815260200160038201548152602001600482015481526020016005820160009054906101000a900460ff1615151515815260200160068201548152602001600782015481526020016008820160009054906101000a900460ff161515151581525050611757565b905085811015610d41576040517f08c379a0000000000000000000000000000000000000000000000000000000008152600401610d38906122b9565b60405180910390fd5b858460070154610d51919061205d565b846007018190555060008460000160009054906101000a900473ffffffffffffffffffffffffffffffffffffffff16905086600454610d9091906122d9565b600481905550610dc17f000000000000000000000000000000000000000000000000000000000000000082896116bf565b505050505050600180819055505050565b610dda611843565b60036000610e33846001600560008873ffffffffffffffffffffffffffffffffffffffff1673ffffffffffffffffffffffffffffffffffffffff16815260200190815260200160002054610e2e91906122d9565b610f1c565b8152602001908152602001600020604051806101200160405290816000820160009054906101000a900473ffffffffffffffffffffffffffffffffffffffff1673ffffffffffffffffffffffffffffffffffffffff1673ffffffffffffffffffffffffffffffffffffffff168152602001600182015481526020016002820154815260200160038201548152602001600482015481526020016005820160009054906101000a900460ff1615151515815260200160068201548152602001600782015481526020016008820160009054906101000a900460ff1615151515815250509050919050565b60008282604051602001610f31929190612376565b60405160208183030381529060405280519060200120905092915050565b60008054906101000a900473ffffffffffffffffffffffffffffffffffffffff1681565b60006004547f000000000000000000000000000000000000000000000000000000000000000073ffffffffffffffffffffffffffffffffffffffff166370a08231306040518263ffffffff1660e01b8152600401610fd19190611a55565b602060405180830381865afa158015610fee573d6000803e3d6000fd5b505050506040513d601f19601f8201168201806040525081019061101291906123b7565b61101c91906122d9565b905090565b611029611843565b60036000838152602001908152602001600020604051806101200160405290816000820160009054906101000a900473ffffffffffffffffffffffffffffffffffffffff1673ffffffffffffffffffffffffffffffffffffffff1673ffffffffffffffffffffffffffffffffffffffff168152602001600182015481526020016002820154815260200160038201548152602001600482015481526020016005820160009054906101000a900460ff1615151515815260200160068201548152602001600782015481526020016008820160009054906101000a900460ff1615151515815250509050919050565b60008054906101000a900473ffffffffffffffffffffffffffffffffffffffff1673ffffffffffffffffffffffffffffffffffffffff163373ffffffffffffffffffffffffffffffffffffffff16146111a5576040517f08c379a000000000000000000000000000000000000000000000000000000000815260040161119c90611d34565b60405180910390fd5b806003600082815260200190815260200160002060080160009054906101000a900460ff16156111d457600080fd5b60006003600084815260200190815260200160002090508060050160009054906101000a900460ff1661123c576040517f08c379a000000000000000000000000000000000000000000000000000000000815260040161123390612456565b60405180910390fd5b600061131b82604051806101200160405290816000820160009054906101000a900473ffffffffffffffffffffffffffffffffffffffff1673ffffffffffffffffffffffffffffffffffffffff1673ffffffffffffffffffffffffffffffffffffffff168152602001600182015481526020016002820154815260200160038201548152602001600482015481526020016005820160009054906101000a900460ff1615151515815260200160068201548152602001600782015481526020016008820160009054906101000a900460ff161515151581525050611757565b90506000811115611331576113308482610a98565b5b60008260070154836006015461134791906122d9565b90508060045461135791906122d9565b60048190555060018360080160006101000a81548160ff0219169083151502179055505050505050565b6000816003600082815260200190815260200160002060080160009054906101000a900460ff16156113b257600080fd5b60006003600085815260200190815260200160002090506114a681604051806101200160405290816000820160009054906101000a900473ffffffffffffffffffffffffffffffffffffffff1673ffffffffffffffffffffffffffffffffffffffff1673ffffffffffffffffffffffffffffffffffffffff168152602001600182015481526020016002820154815260200160038201548152602001600482015481526020016005820160009054906101000a900460ff1615151515815260200160068201548152602001600782015481526020016008820160009054906101000a900460ff161515151581525050611757565b92505050919050565b60008054906101000a900473ffffffffffffffffffffffffffffffffffffffff1673ffffffffffffffffffffffffffffffffffffffff163373ffffffffffffffffffffffffffffffffffffffff161461153d576040517f08c379a000000000000000000000000000000000000000000000000000000000815260040161153490611d34565b60405180910390fd5b806000806101000a81548173ffffffffffffffffffffffffffffffffffffffff021916908373ffffffffffffffffffffffffffffffffffffffff1602179055508073ffffffffffffffffffffffffffffffffffffffff163373ffffffffffffffffffffffffffffffffffffffff167f8be0079c531659141344cd1fd0a4f28419497f9722a3daafe3b4186f6b6457e060405160405180910390a350565b6115e2611843565b6115f46115ef8484610f1c565b611021565b905092915050565b600061164782600560008573ffffffffffffffffffffffffffffffffffffffff1673ffffffffffffffffffffffffffffffffffffffff16815260200190815260200160002054610f1c565b9050919050565b60006116586104a2565b8210611699576040517f08c379a0000000000000000000000000000000000000000000000000000000008152600401611690906124e8565b60405180910390fd5b600282815481106116ad576116ac612508565b5b90600052602060002001549050919050565b60006040517fa9059cbb000000000000000000000000000000000000000000000000000000008152836004820152826024820152602060006044836000895af13d15601f3d1160016000511416171691505080611751576040517f08c379a000000000000000000000000000000000000000000000000000000000815260040161174890612583565b60405180910390fd5b50505050565b60008061176261183b565b9050826020015181108061177857508261010001515b15611787576000915050611836565b8260600151836020015161179b919061205d565b81106117bd578260e001518360c001516117b591906122d9565b915050611836565b60008360200151826117cf91906122d9565b9050600084608001519050600081836117e891906125d2565b9050600082826117f89190612603565b905060008760600151828960c001516118119190612603565b61181b91906125d2565b90508760e001518161182d91906122d9565b96505050505050505b919050565b600042905090565b604051806101200160405280600073ffffffffffffffffffffffffffffffffffffffff1681526020016000815260200160008152602001600081526020016000815260200160001515815260200160008152602001600081526020016000151581525090565b6000819050919050565b6118bc816118a9565b82525050565b60006020820190506118d760008301846118b3565b92915050565b600080fd5b600073ffffffffffffffffffffffffffffffffffffffff82169050919050565b600061190d826118e2565b9050919050565b61191d81611902565b811461192857600080fd5b50565b60008135905061193a81611914565b92915050565b611949816118a9565b811461195457600080fd5b50565b60008135905061196681611940565b92915050565b60008115159050919050565b6119818161196c565b811461198c57600080fd5b50565b60008135905061199e81611978565b92915050565b600080600080600080600060e0888a0312156119c3576119c26118dd565b5b60006119d18a828b0161192b565b97505060206119e28a828b01611957565b96505060406119f38a828b01611957565b9550506060611a048a828b01611957565b9450506080611a158a828b01611957565b93505060a0611a268a828b0161198f565b92505060c0611a378a828b01611957565b91505092959891949750929550565b611a4f81611902565b82525050565b6000602082019050611a6a6000830184611a46565b92915050565b600060208284031215611a8657611a856118dd565b5b6000611a9484828501611957565b91505092915050565b600060208284031215611ab357611ab26118dd565b5b6000611ac18482850161192b565b91505092915050565b6000819050919050565b611add81611aca565b8114611ae857600080fd5b50565b600081359050611afa81611ad4565b92915050565b60008060408385031215611b1757611b166118dd565b5b6000611b2585828601611aeb565b9250506020611b3685828601611957565b9150509250929050565b611b4981611902565b82525050565b611b58816118a9565b82525050565b611b678161196c565b82525050565b61012082016000820151611b846000850182611b40565b506020820151611b976020850182611b4f565b506040820151611baa6040850182611b4f565b506060820151611bbd6060850182611b4f565b506080820151611bd06080850182611b4f565b5060a0820151611be360a0850182611b5e565b5060c0820151611bf660c0850182611b4f565b5060e0820151611c0960e0850182611b4f565b50610100820151611c1e610100850182611b5e565b50505050565b600061012082019050611c3a6000830184611b6d565b92915050565b60008060408385031215611c5757611c566118dd565b5b6000611c658582860161192b565b9250506020611c7685828601611957565b9150509250929050565b611c8981611aca565b82525050565b6000602082019050611ca46000830184611c80565b92915050565b600060208284031215611cc057611cbf6118dd565b5b6000611cce84828501611aeb565b91505092915050565b600082825260208201905092915050565b7f554e415554484f52495a45440000000000000000000000000000000000000000600082015250565b6000611d1e600c83611cd7565b9150611d2982611ce8565b602082019050919050565b60006020820190508181036000830152611d4d81611d11565b9050919050565b7f546f6b656e56657374696e673a2063616e6e6f7420637265617465207665737460008201527f696e67207363686564756c652062656361757365206e6f74207375666669636960208201527f656e7420746f6b656e7300000000000000000000000000000000000000000000604082015250565b6000611dd6604a83611cd7565b9150611de182611d54565b606082019050919050565b60006020820190508181036000830152611e0581611dc9565b9050919050565b7f546f6b656e56657374696e673a206475726174696f6e206d757374206265203e60008201527f2030000000000000000000000000000000000000000000000000000000000000602082015250565b6000611e68602283611cd7565b9150611e7382611e0c565b604082019050919050565b60006020820190508181036000830152611e9781611e5b565b9050919050565b7f546f6b656e56657374696e673a20616d6f756e74206d757374206265203e2030600082015250565b6000611ed4602083611cd7565b9150611edf82611e9e565b602082019050919050565b60006020820190508181036000830152611f0381611ec7565b9050919050565b7f546f6b656e56657374696e673a20736c696365506572696f645365636f6e647360008201527f206d757374206265203e3d203100000000000000000000000000000000000000602082015250565b6000611f66602d83611cd7565b9150611f7182611f0a565b604082019050919050565b60006020820190508181036000830152611f9581611f59565b9050919050565b7f546f6b656e56657374696e673a206475726174696f6e206d757374206265203e60008201527f3d20636c69666600000000000000000000000000000000000000000000000000602082015250565b6000611ff8602783611cd7565b915061200382611f9c565b604082019050919050565b6000602082019050818103600083015261202781611feb565b9050919050565b7f4e487b7100000000000000000000000000000000000000000000000000000000600052601160045260246000fd5b6000612068826118a9565b9150612073836118a9565b925082820190508082111561208b5761208a61202e565b5b92915050565b7f5245454e5452414e435900000000000000000000000000000000000000000000600082015250565b60006120c7600a83611cd7565b91506120d282612091565b602082019050919050565b600060208201905081810360008301526120f6816120ba565b9050919050565b7f546f6b656e56657374696e673a206e6f7420656e6f756768207769746864726160008201527f7761626c652066756e6473000000000000000000000000000000000000000000602082015250565b6000612159602b83611cd7565b9150612164826120fd565b604082019050919050565b600060208201905081810360008301526121888161214c565b9050919050565b7f546f6b656e56657374696e673a206f6e6c792062656e6566696369617279206160008201527f6e64206f776e65722063616e2072656c656173652076657374656420746f6b6560208201527f6e73000000000000000000000000000000000000000000000000000000000000604082015250565b6000612211604283611cd7565b915061221c8261218f565b606082019050919050565b6000602082019050818103600083015261224081612204565b9050919050565b7f546f6b656e56657374696e673a2063616e6e6f742072656c6561736520746f6b60008201527f656e732c206e6f7420656e6f7567682076657374656420746f6b656e73000000602082015250565b60006122a3603d83611cd7565b91506122ae82612247565b604082019050919050565b600060208201905081810360008301526122d281612296565b9050919050565b60006122e4826118a9565b91506122ef836118a9565b92508282039050818111156123075761230661202e565b5b92915050565b60008160601b9050919050565b60006123258261230d565b9050919050565b60006123378261231a565b9050919050565b61234f61234a82611902565b61232c565b82525050565b6000819050919050565b61237061236b826118a9565b612355565b82525050565b6000612382828561233e565b601482019150612392828461235f565b6020820191508190509392505050565b6000815190506123b181611940565b92915050565b6000602082840312156123cd576123cc6118dd565b5b60006123db848285016123a2565b91505092915050565b7f546f6b656e56657374696e673a2076657374696e67206973206e6f742072657660008201527f6f6361626c650000000000000000000000000000000000000000000000000000602082015250565b6000612440602683611cd7565b915061244b826123e4565b604082019050919050565b6000602082019050818103600083015261246f81612433565b9050919050565b7f546f6b656e56657374696e673a20696e646578206f7574206f6620626f756e6460008201527f7300000000000000000000000000000000000000000000000000000000000000602082015250565b60006124d2602183611cd7565b91506124dd82612476565b604082019050919050565b60006020820190508181036000830152612501816124c5565b9050919050565b7f4e487b7100000000000000000000000000000000000000000000000000000000600052603260045260246000fd5b7f5452414e534645525f4641494c45440000000000000000000000000000000000600082015250565b600061256d600f83611cd7565b915061257882612537565b602082019050919050565b6000602082019050818103600083015261259c81612560565b9050919050565b7f4e487b7100000000000000000000000000000000000000000000000000000000600052601260045260246000fd5b60006125dd826118a9565b91506125e8836118a9565b9250826125f8576125f76125a3565b5b828204905092915050565b600061260e826118a9565b9150612619836118a9565b9250828202612627816118a9565b9150828204841483151761263e5761263d61202e565b5b509291505056fea2646970667358221220421f296f8dc07aaa94d345fffa825f9e43b582c6a9f5db771609365619fb3edf64736f6c63430008180033",
  "linkReferences": {},
  "deployedLinkReferences": {}
}